:020000040000fa
:080000000001040000000000f3
:020000040000fa
:10020000cf8e200080ff2000000188000000000049
:10021000050007000c0007008a1102000000000022
:100220000040da000000fe004440a90080fc2100ec
:100230000000e0000300320000002000a001880060
:100240004440a80000000600807b2200010020003e
:100250001600370062004000e080480091018800ed
:100260009001ba0062004000e080480091018800df
:100270009002ba0062004000e08048000002eb00fb
:100280006028e10005003a008301e900070033001f
:10029000038009000059eb00040037006128e100e9
:1002a000010032000082eb00050007009101880088
:1002b0001001ba000200e000e6ff3a00000005006d
:1002c000910188008002780062004000e0804800d0
:1002d0003559ba008301e900080032002559ba00f7
:1002e0008301e900050032000400e000f4ff320061
:1002f00015d9ba008301e900f1ff3a0000000600b9
:100300000000000000000000881f78000204780050
:1003100014000700080040004f04780000000600a9
:100320000000fa00881f7800000478003fb99700a9
:10033000ea81570080007800401820001000070074
:10034000800078000000e000020035000040eb0073
:1003500080707c00010078004f0478000080fa0073
:10036000000006008001780002003700b1597800d3
:100370000201e9000200e000fcff3a000000060074
:100380006200fa00889fbe008a9fbe000004be0083
:10039000020578008300780060f92f000f0040000c
:1003a000b000070088979f0099979f000000eb001e
:1003b000a09f9f009a4578000b80fb000000ea0098
:1003c000cf04de0050c2b30080cf550002003200df
:1003d00009047800010037000904e9000800e00082
:1003e0000b0034001f909700080178008a00780005
:1003f0008f9197000300010090979f000000e0009c
:10040000930032002f98970000004400a09f9f00a7
:100410000905450050c2b30080cf550004003200ea
:100420000b04e000e3ff3a002f98970089003700a3
:100430000000eb00809f9f00f0979f00e0979f00d7
:10044000d0979f00c0979f00b0979f00c09f9f00cc
:1004500009003700e08d20000080500000004000bf
:10046000218d2000e08078004f98970001007000f7
:10047000c09f9f000a05e8001a4478008800fb002e
:10048000e08d20007c000700800078000000e00084
:10049000f0ff3a00a0c2b300804f54000e003a00b3
:1004a000bf8897000180e900b08f9f00100078009e
:1004b000b09f9f000000e00005003d000000ea0042
:1004c000b09f9f004f9897000020a000c09f9f0002
:1004d0000a05e80010003700b19f9f0009003700af
:1004e000bf989700f0ff2700808f50000400320073
:1004f0006a08b9000000410003004000b09f9f005f
:100500000a05e8001a01fb0003fd2f00030041006b
:10051000e90f5000f2ff3600e0c2b3009a4f10001e
:10052000040032000080eb00909f9f008a04780056
:100530001c0037008a04e800a0c2b300994f1000e5
:1005400007003a00bf8897000180e900b08f9f0044
:1005500010007800909f9f008a84e8001100370007
:100560000000eb00909f9f00090037009f989700c4
:10057000f0ff2700808f5000040032006a08b900a5
:100580000000410003004000909f9f008904e800a4
:100590001901fb0003fd2f0003004100e90f50008b
:1005a000f2ff3600194478008800fb00408e2000de
:1005b000310007000000e00002003a00004478002b
:1005c000010037008904e800a87f9f0080c6b300bf
:1005d000804f540004003a00994f14000a003a007a
:1005e0006640500006003700c0c6b300804f54007c
:1005f00005003a00994f140003003a00654040009e
:10060000a07f9f008904e8000905e800cbfb2f00cc
:100610008f8545001901fb0060f92f000f00400095
:100620000084e8008b0178008000780008007800e2
:100630001a0007000000e00005003a008b00780077
:1006400008007800590107000000e00059ff3d0054
:100650000080eb004f05be004f04be000080fa0092
:10066000000006000200fa00f1bf9f0001087800b8
:100670000080fa0000000600040037000204e000d9
:1006800001003a00000005000000e8001041780079
:10069000814f5100f9ff3a0000000600889fbe001c
:1006a0008a1f7800000478000102780082447800f4
:1006b00003057800e0c6b300804f5100d30032003c
:1006c00015003c006b405000804f51002400320068
:1006d0000a003c0070405000804f51001001320071
:1006e00065404000804f51007400320050c2b3009a
:1006f000804f510021013a001d01370040c6b30070
:10070000804f51001b00320065404000804f510077
:100710001a013a001700370030c7b300804f51006c
:10072000ff00320007003c0064405000804f510041
:10073000620032000040e800804f51000f013a0093
:10074000e800370050c7b300804f51005b00320013
:1007500063404000804f510008013a0057003700c5
:100760009180e900010a78007800900011f079008a
:1007700008013700a8609000c0c6b30080cf5000c9
:100780000a003a009400780064805000000a780063
:100790001000be004f89de00cf91de000002be00d7
:1007a00002037800820378001300370010c7b300fb
:1007b00080cf500003003200a0c6b30080cf5000ad
:1007c00006003a009400780068805000000a780023
:1007d0003002be002003be00070037001480e9008d
:1007e000000a78001000780000027800cfa2de0036
:1007f0000503780086037800049cbe000694be00c2
:10080000a860900080c6b30080cf50000e00320078
:1008100020c6b30080cf500005003a000400fb0062
:10082000cf80de0001017800820178000a003700e5
:1008300040c7b30080cf5000030032006640400044
:1008400080cf500006003a0004007800cf80de0020
:100850000101780082017800009cbe000294be0075
:100860003800be002801be00e00f5000e08f5800a5
:10087000e00f5900e08f590003003d007800900020
:10088000d1c2b3000a003700081090000018a3007e
:100890000300320078009000b1c2b30004003700ba
:1008a0000008a300540032007800900001c2b30099
:1008b00001707d000000e8004e003700a860900045
:1008c000c0c6b30080cf500007003a009400780003
:1008d00064805000000a78001002be000003eb00a4
:1008e000860378001300370010c7b30080cf500094
:1008f00003003200a0c6b30080cf500006003a00cb
:100900009400780068805000000a78003002be0031
:100910002003be00070037001480e900000a7800b9
:10092000100078000002780005002000060020007a
:1009300007002000049cbe000694be00a860900042
:1009400080c6b30080cf50000e00320020c6b30036
:1009500080cf500005003a000480fb000100200019
:1009600002002000030020000a00370040c7b30047
:1009700080cf5000030032006640400080cf50001e
:1009800006003a0004007800010020000200200068
:1009900003002000009cbe000294be0008109000de
:1009a0000038a300140032003800be002801be0049
:1009b000e00f5000e08f5800e00f5900e08f590021
:1009c0000d00320080c7b30080cf54000300320016
:1009d00080c5b30080cf540007003a007800900033
:1009e00001c3b30001707d008000e80089707d00c4
:1009f0000080e80070049800780090000000450036
:100a0000600498008940780042003700a860900098
:100a1000c0c6b30080cf5000250032000a003c0061
:100a20006440500080cf50002800320000c0e80031
:100a300080cf5000140032006840500080cf50003a
:100a400022003a000a00370040c7b30080cf5000b0
:100a50001e0032006640400080cf50001b00320074
:100a60006940500080cf500018003a00060037005f
:100a70001480e900000a780010007800485c9000bb
:100a800008487800450037001480e900000a780023
:100a90001002780068089000cf80de000101780025
:100aa00082017800009abe000292be003b0037002f
:100ab0001480e900000a78001001780068089000ae
:100ac000cf80de000089be00340037001480e900ca
:100ad000000a780010007800680c90000808780080
:100ae0002e0037001180e90080087800100078009f
:100af000cf80de000101780082017800009cbe00fa
:100b00000294be0078009000000045006004980048
:100b100081c7b30008007800ee0007001f0037000f
:100b20001480e900000a7800100078006004980042
:100b3000580990000200e00002003d009c010700ff
:100b4000090037008000eb00a0010700800078005a
:100b50000000e000030032006800900000805000b8
:100b60000100370058089000100c98000b00370067
:100b70007800900002707d00060037007800900039
:100b8000800045000904e00001003a0059c2b300aa
:100b9000894878000000e800700498000000eb002d
:100ba0004f0578004f04be00000006000400fa0064
:100bb000889fbe008a9fbe008c1f780000047800ca
:100bc0000106780070089000f800900001005000c5
:100bd0008808900001005000980890000100500023
:100be000a808900001005000b808900001005000d3
:100bf000c80890008105500000022200a0bf9f009d
:100c00000003230090bf9f00081090000028a3005d
:100c100018003a000b00e000160034008b04780046
:100c200009057800e28f5400020036002a002000f7
:100c3000020037000900e0000b003400580090006b
:100c4000c80190000a017800ec8057000300010001
:100c5000500498000000e000960032006808900000
:100c600000004500600c98008a8454004240a900ae
:100c7000ebff3c00780190000200e0000b00340024
:100c800058009000c80190008c007800030001001b
:100c9000500498000000e0008600320068089000d0
:100ca000f800900001004000600c9800880c900053
:100cb0000900e0001500340009057800e28f5400b7
:100cc000020036002a002000020037000900e00080
:100cd0000b00340058009000c80190000a01780011
:100ce000ee80570003000100500498000000e0006f
:100cf000700032006808900000004500600c980009
:100d00008a8454004240a900ebff3c00180990007f
:100d10000200e0000b003400e80090005800900052
:100d2000c801900003000100500498000000e0009a
:100d300060003200680890009808900001004000b0
:100d4000600c9800a80c90000900e0001500340029
:100d500009057800e28f5400020036002a002000c6
:100d6000020037000900e0000b003400580090003a
:100d7000c80190000a017800ee80570003000100ce
:100d8000500498000000e0004a003200680890001b
:100d900000004500600c98008a8454004240a9007d
:100da000ebff3c00380990000200e0000d00340029
:100db000e8009000180890008080400058009000e3
:100dc000c801900003000100500498000000e000fa
:100dd0003800320068089000b80890000100400018
:100de000600c9800c80c90000900e0001500340069
:100df00009057800e28f5400020036002a00200026
:100e0000020037000900e0000b0034005800900099
:100e1000c80190000a017800ee805700030001002d
:100e2000500498000000e0002200320068089000a2
:100e300000004500600c98008a8454004240a900dc
:100e4000ebff3c00081090000028a3001b003200bc
:100e50000b00e000190034008b04780009057800cd
:100e6000e28f5400020036002a0020000200370002
:100e70000900e0000b00340058009000c801900009
:100e80000a017800ec80570003000100500498002c
:100e90000000e000070032006808900000004500f4
:100ea000600c98008a8454004240a900030034007a
:100eb000eaff37000080eb00010037000000eb0084
:100ec0004f0678004f05be004f04be000080fa00b8
:100ed00000000600ef02b000889fbe008a9fbe009f
:100ee0008c9fbe008e1f78008006780000012000d5
:100ef000b0b79f00128c2000c2b79f0080c5b3001e
:100f000080cf50000e00320083002000b3b79f0056
:100f1000048b2000c4b79f007740400080cf500072
:100f20000700320000012000b0b79f0080c7b30067
:100f300080cf500002003200a2002000b2b79f0014
:100f40003d04be002d05be0040c6b30080cf50005a
:100f5000030032006540400080cf50000b003a0093
:100f6000e00f5400e08f5c00e00f5d00e08f5d005b
:100f700006003d006000b8006011b8000804500091
:100f8000898458000a0559008b855900e00f5400e8
:100f9000e08f5c00e00f5d00e08f5d0004003a0030
:100fa0005d0890008e0120000000e0000c0032007f
:100fb000bfb1970003027800cfa2de0005037800de
:100fc000860378000800be000a01be003e0207004a
:100fd0004fb2970064407800d0df9f007e01200070
:100fe0003fb0970000027800cfa2de000503780032
:100ff000860378000800be000a01be002b0207002d
:1010000023003700bfb0970001047800cfc4de0092
:10101000090578008a0578000802be000a03be00b0
:101020007fa897008fb097001fb19700afb19700ce
:1010300029020700d0b79f00e1b79f00f2b79f00d9
:1010400083bf9f000e07e90062fc2f000f014100e3
:10105000020647000802be000a03be005fb0970008
:10106000efb097007fb197008fb997009602070005
:101070007faa970000005200cfb0970060ce7800a2
:101080005fb09700efb097007fb197008fb99700de
:10109000809ebe008296be003d00be002d01be00b7
:1010a000f0af9f0081b79f0092b79f00a3b79f004a
:1010b000e00f5000e08f5800e00f5900e08f59001a
:1010c000020034000e00e000ceff3c00bfb09700ed
:1010d000e88f500010003a000d1090000038a30077
:1010e0000d003200f70f570006003e0062fc2f0093
:1010f0000f0141008200470000c3b300914f100070
:10110000050032000e07e90000c3b30063fc2f00a6
:101110008e81410080f17f0078011700920e9800c7
:101120006d00900063fc2f008f8141008e80410094
:101130008cfc07001d0990005d089000800f510095
:1011400006003d0002005000800e98000d10900037
:101150000040a100801698000f0037000000e0005a
:101160000d003d000d10900074006000f00f500065
:1011700009003a007d089000fd0090000100500039
:101180008d08900001005000020050004240a9006c
:1011900001003400800e98004f0778004f06be0013
:1011a0004f05be004f04be00ef02b1000000060074
:1011b00080007800010037000000e8001004e00023
:1011c000fdff3a0001005000000006000600370055
:1011d00090cf100002003a000001780004003700b0
:1011e0000000e8000201e9000200e000f8ff3a0018
:1011f0000200780000000600889fbe008a9fbe00a3
:10120000010578000100e0000400350008003c0002
:101210000000e000200032000500370060001000f0
:10122000e080180002003b0001f02c001a0037009b
:101230000004be006011b8006b0920000982cf00d5
:10124000020039000882cf000441b0006942520018
:101250000e00320008003b008281710061016400d1
:101260008904d1000884d3008b05e8000442e8001b
:10127000f9ff3a00050037000804440089844c0057
:101280008b05e9000442e900fbff3a00b2000700c9
:101290000af0a70001f0a0004f05be004f04be00f9
:1012a0000000060003f0a200889fbe008a9fbe00d7
:1012b0008c1f7800ce000700d50033006450e10099
:1012c0004f0032006420e1005200320003826c00c3
:1012d00007003b000905d0000306d000820f540030
:1012e0000c065d000200390002003200890178001e
:1012f000030678008582550004003d000003fd00d0
:101300008103fd008502ea008b854200840f720094
:1013100002003b0060001000e08018006011b8007f
:101320000005eb007a28e1000a0039000600780089
:10133000c75ddd00f707b200878075002d0037001c
:10134000828171000a017800610560008180d1000e
:101350000080d3008502e900f9ff3b00060440004d
:101360008784480002003b0060041400e0841c00f5
:101370000988a300070032008a8171008281710010
:10138000610164008904d1000884d3008b05e80062
:10139000170037000978a30013003a000b00e000a3
:1013a000130034008b05e9000804440089844c00d4
:1013b0000a4474000978a3000d003a000b00e00015
:1013c000070034008b05e9000804440089844c00c0
:1013d00001003a000b0020000978a300f7ff32005b
:1013e0000001eb0002003700828171000a017800e1
:1013f000590007000cf0a70001f0a0008d00370095
:101400006420e10002003a00838f6c008d003300fd
:101410000801be000200be0086003700889fbe00a3
:101420008a9fbe008c1f780071000700780033008f
:1014300003866c006450e100240032006420e10067
:10144000270032006150e100220032006120e100fb
:10145000210032008b854200eb07b1000134b80057
:10146000003ab8000804420089844a00013ab800f2
:101470000030b8008880400009014a0004003300b1
:101480000000400081804800020149008b05e9000e
:10149000c909dd0083017000010032001300200043
:1014a000c814de004814dd004709de001200b20057
:1014b000c808de00088470002700070001f0a100c2
:1014c0000cf0a70001f0a0005a0037006120e100f5
:1014d0005c0032000801be000200be00f7ff3700ca
:1014e0006150e100fcff3a00560037000001be00e9
:1014f000570007000470a70003f0a10003f8a30041
:1015000013003a006509b1001000320009003500ef
:101510006928e100020035000100280000000500f4
:1015200000004000818048008502e900fcff3a008d
:1015300000000600f88f4200050035008100d10050
:101540000080d3008502e800fcff3a00000006009e
:101550008000eb0000000500810020006180550044
:101560000b003d000b00200061fe2f000100e10098
:101570001d00340082817100610164008904d10082
:101580000884d3000000e800faff3a007100200050
:101590006100640003007000020060000900320076
:1015a00061044400e0844c000988a5000500320075
:1015b0008b05e8006808e10002003a008904d100c8
:1015c0000884d300f20f20000258e10005003d001e
:1015d000c75ddd00f907b20089807500080078005a
:1015e000000006000bf827008b00780000000500c3
:1015f0000004be00160007000003be000405be0084
:101600000200be0012000700844f750000000600b3
:101610000200be006450e100050036006420e100d5
:10162000020036000968a30001003a000800be006d
:101630000160a0004f0678004f05be004f04be00b9
:1016400000000600f0ff2f00f1ff2700f9ff370030
:10165000c70ade00f107b200f50fb2000800320041
:10166000e1cf4200020032000170a000240005001a
:10167000810f7000010032000408050044000500dd
:10168000810f700002003a00140005008502e90095
:101690000000400081c04800fcff3b000170a0003a
:1016a00024000500881f7800000478005001be0067
:1016b0004000be000400400085804800060149004b
:1016c00087814900009cbe000294be000400e10036
:1016d0000588e1000690e1000798e1000200310072
:1016e000680044001008e8004f047800000006007d
:1016f0001000fa00889fbe008a9fbe003004be0022
:101700002005be00c8b79f00d9b79f00eab79f0069
:10171000fbb79f000404540085845c0006055d004f
:1017200087855d0088bf9f0099bf9f00aabf9f006b
:10173000bbbf9f000898be000a98be008000eb0067
:101740004fb49700dfb497006fb59700ffb59700cf
:101750000440e10005c8e10006d0e10007d8e1003f
:101760000100310011002000108810004f05be005c
:101770004f04be000080fa00000006001200fa00cc
:10178000889fbe008a9fbe008c1f78000205be00a5
:101790000004be00f4b79f0085bf9f0096bf9f0066
:1017a000a7bf9f000000eb00e0b79f00d0b79f00ed
:1017b000c0b79f00b0b79f00a0b79f000006780099
:1017c000dfb097006fb09700000140000000e0001c
:1017d0000a003d008c00070001003d0012002000bf
:1017e0009200070001003d00120020009700070052
:1017f0007c805700abff070009003700820007001c
:1018000001003d00120020008800070001003d009b
:10181000120020008d0007007c805700b4ff0700f5
:101820006fb297000400e0000700350010002000b0
:10183000010020006011b800080470008984700065
:101840000a0571008b8571000c06e800f00320008a
:10185000800f5600daff34000400e00006003d006f
:101860007fb297008fba97001fbb9700afbb97005e
:101870007c8057008bff07006fa897000000e000f6
:1018800004003a002fb49700bfb497004fb59700fb
:10189000dfb59700890007004f0678004f05be00ae
:1018a0004f04be000080fa0000000600881f780088
:1018b00018002000881f7800b0ff07008f87e9001c
:1018c0004f04780000000600801feb00abff07000c
:1018d0008f87e90000000600889fbe008a9fbe0037
:1018e0008c1f78006e00070005003d002f000700e8
:1018f00007003d003d0007000006eb000400370034
:101900003f00070002003d00300007001c002000df
:101910006a000700e5ff07000203be000002be00e8
:101920000c00e00001003200280007000400be00a7
:101930000601be004f0678004f05be004f04be00f2
:1019400000000600889fbe008a9fbe008c1f7800a2
:101950005300070003003d001400070006003d008f
:10196000040037002600070003003d006000b800b7
:101970006011b8001d00070050000700d2ff0700eb
:101980000203be000002be000c00e00001003200b5
:101990000e0007000400be000601be004f067800de
:1019a0004f05be004f04be00000006006000b800f6
:1019b0006011b80008045000898458000a055900d5
:1019c0008b8559001c002000030037006000b80020
:1019d0006011b80005003700e00f5200e08f5a0098
:1019e000e00f5b00e08f5b00000006000402500087
:1019f00085825800060359008783590000000600bd
:101a00000006eb00f4ff37004f08de000000710015
:101a1000c0b79f0001804000b0b79f000001eb00fd
:101a2000afb097000100e000000006000200700067
:101a3000b0b79f0001804000a0b79f000001eb00fd
:101a40009fb097000100e000000006000200700057
:101a5000a0b79f00018040000fb29700cf20de00aa
:101a60000100700090b79f000402420013000700bd
:101a70004f18de000002720084b79f000804440083
:101a800089844c000a054d008b854d005fb297009c
:101a9000efb297007fb397008fbb9700000006005e
:101aa0000205be000004be00e00f5000e08f5800a9
:101ab000e00f5900e08f5900000006000800be004a
:101ac0000a01be0000000600889fbe008a9fbe007b
:101ad0008c1f78000205be000004be000006eb006b
:101ae000e00f5000e08f5800e00f5900e08f5900e0
:101af00007003d006000b8006011b8000804500005
:101b0000898458000a0559008b8559001c00200063
:101b1000e00f5200e08f5a00e00f5b00e08f5b00a7
:101b200002003d000f0007000c00a2000800be00ec
:101b30000a01be00120007000203be000002be0040
:101b40000c00e00001003200060007000400be00a7
:101b50000601be004f0678004f05be004f04be00d0
:101b6000000006006000b8006011b80004025000d8
:101b7000858258000603590087835900000006003b
:101b8000889fbe008a9fbe008c9fbe000404b800e0
:101b90000506b8008904460060854e000606b800b8
:101ba0000a054600e0854e000706b8008b05460092
:101bb000040eb800890446000a854e00e0854d00f9
:101bc000050eb8000a0546008b854e00060eb800cb
:101bd0008b0546000416b8000a0546008b854e00aa
:101be0000516b8008b054600041eb8008b0546009c
:101bf0000800be000a01be004f06be004f05be0031
:101c00004f04be0000000600a022a900000006004c
:101c10000080fb0000004000012820006080780068
:101c20000000060030158800000006008560a9004d
:101c3000e7416000c419dd0091092000914078005f
:101c4000f2c8b30082c0600083c070008000fd0055
:101c500099e0b7008000fd00680060004300de00ee
:101c60004300dd00d1082000914078000134a1003c
:101c700080c07000010078008de0b7000000060011
:101c80004315880054158800221588001115880016
:101c9000001588000000d100614060000040400055
:101ca000012a2000914078000114a10080c070003a
:101cb00001007800a0e2b700000006000200fa0070
:101cc000000f78001e0078004200dd000080fa005e
:101cd000000006000800fa00300798000000eb0042
:101ce000100798000040eb00004f78000040eb0028
:101cf00040479800210037004e4090000080fb00d4
:101d000000004000800078003e009000008040000d
:101d10009e009000010878009e009000f0272000af
:101d2000808f50000300360010c0b300004f7800d1
:101d3000050037001e0090000000e00002003a009d
:101d40000040eb00004f78001e04e00004003a0061
:101d50001e0090000002b000100798000400370039
:101d60001e00900001fe2f000100400010079800a7
:101d70004e4090000040e80040479800ce40900060
:101d800070c2b30080cf5000dbff36000080fa0045
:101d9000000006000a00fa002007980031079800aa
:101da000024f98000000eb00000f78000040eb00ad
:101db000204798000d0037002e4090000080fb0067
:101dc00000004000800078002e009000008040005d
:101dd0001e0878000e4890000080fb001e0f400097
:101de0002e4090000040e800204798003e00900000
:101df0009e0f1000f0ff36000080fa000000060081
:101e00000400fa00000f7800110798001e00780007
:101e100090007800f0272000808f500004003600ea
:101e20009e00780010c0b300a04098000700370063
:101e30001e007800100078000000e00003003a0067
:101e40009e0078000040eb00a04098001e00780043
:101e5000204090000004e00007003a001e007800d7
:101e60001000780001022000808040001e007800f1
:101e700001087800060037001e0078009000780006
:101e800000fe2f00808040001e00780001087800ce
:101e90001e007800400090000000400080007800a4
:101ea0001e00900000804000900078001e00780026
:101eb000210098001e007800400090008000e8009b
:101ec0001e007800410098001e007800c0009000bd
:101ed000f07c2000808f5000030036009e007800c8
:101ee0000000eb00c00098001e007800e0009000a9
:101ef000f07c2000808f50000b003e00dc42a800e8
:101f00001e007800a00090001e00780010007800ed
:101f1000808f500002003900dc02a8000300370067
:101f2000dc02a90001003700dc02a9001e007800d5
:101f3000e0009000f07c2000808f50000b00360005
:101f4000dc42a9001e007800a00090001e0078006e
:101f500010007800808f500002003900dc22a800b9
:101f600003003700dc22a90001003700dc22a900b1
:101f70001e007800600090008000e8001e007800dd
:101f8000610098001e007800e0009000f0f9200049
:101f9000808f5000030036009e0078000000eb00a8
:101fa000e00098000080fa00000006000600fa0039
:101fb000000f780011079800220798001e00780093
:101fc000204090000080fb0000004000800078006e
:101fd0002e00900000804000900078001e007800e5
:101fe000010878001e007800204090008040e80042
:101ff0001e007800214098001e007800a04090004c
:1020000070c2b30080cf5000030036009e007800fd
:102010000040eb00a04098001e00780040009000b7
:1020200000004000800078001e009000008040000a
:10203000900078001e007800210098001e007800b3
:10204000400090008000e8001e00780041009800e9
:102050001e007800c0009000f07c2000808f5000af
:10206000030036009e0078000000eb00c0009800de
:102070001e007800e0009000f07c2000808f50006f
:102080000b003e00dc42a8001e007800a00090007b
:102090001e00780010007800808f50000200390088
:1020a000dc02a80003003700dc02a90001003700b1
:1020b000dc02a9001e007800e0009000f07c200007
:1020c000808f50000b003600dc42a9001e00780013
:1020d000a00090001e00780010007800808f500053
:1020e00002003900dc22a80003003700dc22a9002e
:1020f00001003700dc22a9001e007800600090007b
:102100008000e8001e007800610098001e00780042
:10211000e0009000f0f92000808f500003003600ae
:102120009e0078000000eb00e00098000080fa00bc
:10213000000006000800fa00000f78001107980060
:1021400022079800330798001e0078002040900076
:102150000080fb0000004000800078002e0090000e
:1021600000804000900078001e0078000108780090
:102170001e007800204090008040e8001e0078009b
:10218000214098001e00780020409000f44f50003d
:10219000030036009e0078000040eb00a04098004d
:1021a0001e00780040009000000040008000780091
:1021b0001e00900000804000900078003e009000db
:1021c0000088b90042062000110009000280d800f2
:1021d000800078001e007800210098001e00780022
:1021e000400090008000e8001e0078004100980048
:1021f0001e007800c0009000f07c2000808f50000e
:10220000120036009e0078000000eb00c00098002d
:10221000dcc2bf000080fb004200de000004a20020
:1022200061406000614060006140600061406000aa
:102230004201dd00c12d200091407800b0cfb300f5
:1022400000c0600002407000dce2b7001e007800b1
:10225000a00090001e00780010007800808f5000d1
:1022600002003900dc02a80001003700dc02a900ee
:102270001e007800600090008000e8001e007800da
:10228000610098001e007800e0009000f07c2000c3
:10229000808f5000030036009e0078000000eb00a5
:1022a000e00098000080fa00000006000400fa0038
:1022b000881f7800100798000040eb00004f78005e
:1022c000a022a80050fe07000040eb00004f78005d
:1022d0000a0037001e80fb000000400080007800ec
:1022e0001e009000008440001e4078000040e8007e
:1022f00047fe0700000c78001e4fe80010c0b30036
:102300009e4f1000f3ff36004f0478000080fa0063
:10231000000006000400fa00881f7800300020004a
:10232000901688000000eb00b01688000000eb005b
:10233000c0168800f0002000e0168800e0002000b1
:10234000301688000000eb00501688006f0107006f
:1023500025010700214d200040772a009401070045
:102360000000eb00704188000f00370070418000d2
:1023700080004000c0852000808040000000eb000d
:1023800080087800704180008000400000872000b5
:10239000808040000000eb008008780070418000e1
:1023a0000000e8007041880070418000e90f500093
:1023b000eeff36000000eb00704188003f00370060
:1023c00070418000100798008040eb00014f7800ba
:1023d0001e009000e50f500002003e0011c0b30047
:1023e000014f78009e0090000100e80070418800d5
:1023f0001e4078000004e00002003200ca02a8007b
:102400000f00370070418000e50f500006003600d5
:102410007141800020032000808f500002003e00a8
:10242000ca02a90006003700714180002003200085
:10243000808f5000020036000000eb0070418800e1
:10244000608a200099ff07000000eb0080418800af
:10245000130037008041800080004000608a200027
:102460000080400090007800804180000000e8007b
:10247000811f7800801f7800a0772a00801f7800d5
:1024800020892000a6f70700e68757002089200052
:10249000ad010700804180000000e8008041880015
:1024a00080418000e10f5000eaff360050782a009a
:1024b000a5010700a0002000b8000700d4c2bf009b
:1024c000614060000004e000bdff3a0090782a00ff
:1024d0009d0107000000eb00704188000d003700ef
:1024e000608a200071ff070031458000c085200010
:1024f000070207005045880041458000c085200044
:102500000302070060458800704180000000e80079
:102510007041880070418000ea0f5000f0ff3600e3
:1025200010c0b3002be8b700ca02a800a0c0b300d7
:102530002ae8b700000a20001008880050458000f3
:10254000b2002000110009000280d8002ce8b7007a
:10255000604580002b0207001008880002c2b3000b
:1025600001282000008020000afe070010c0b300f0
:10257000b70007004006200088000700dc82a800a2
:102580002ac8bf000080fb00704188000c003700a3
:10259000704180002ae8b7007141800070792a00fc
:1025a0000301070050782a0067010700200320007c
:1025b0007a000700704180000080e80070418800c8
:1025c0002cc8bf008080fb0070418000808f5000cd
:1025d000efff31000040eb002be8b700a022a8007d
:1025e00089fd070010002000704188001c003700a2
:1025f000704180000004e9007041800084fd070004
:102600000001780088004400608a200000804000bb
:1026100002087800704180000000e900800040005e
:10262000608a200000804000100078007141800026
:10263000801f7800811f7800a0772a00801f780013
:102640002089200036f70700e68757002089200000
:102650003d010700704180000000e80070418800e3
:1026600070418000e20f5000e1ff360031458000ec
:10267000c0852000a6010700504588005045800015
:10268000b2002000110009000280d8002ae8b7003b
:1026900041458000008720009d01070060458800bb
:1026a00060458000d7010700100888000040eb005b
:1026b00092e8b70050458000801f7800d0792a004a
:1026c000801f78002089200015f70700e487570055
:1026d000208920001c0107000040eb0092e8b700b1
:1026e00060458000801f7800d07a2a00801f780023
:1026f000208920000af70700e4875700208920007e
:102700001101070050782a000f010700a0002000e7
:1027100022000700d4c2bf00614060000004e00056
:10272000aeff320010c0b3002be8b700ca02a80009
:10273000dc82a9002ac8bf000080fb00704188002d
:102740000c003700704180002ae8b700714180001a
:1027500070792a009600070050782a00fa000700d6
:10276000200320000d000700704180000000e900f8
:102770007041880070418000e90f5000f1ff3e0079
:102780000040eb0032000700dc02a900dc22a900b7
:102790000040eb002be8b70006ff37000400fa000a
:1027a00010079800080037000000eb00000f7800c9
:1027b00002003700000000001e0fe80070572000e4
:1027c0009e0f1000fbff36001e0090000000e90085
:1027d000100798001e009000e10f4000f2ff3a0041
:1027e0000080fa00000006000c00fa00a1e2a90037
:1027f00000fe2f00500798005e00900009fd0700c2
:1028000070ff2f0009fd070000ff2f004007980010
:10281000f0f02f003007980090ac2e0020079800b1
:10282000c0cf200010079800f0c12d00000f7800e5
:102830003e029000ce0190002e0190009e0090007c
:102840001e0078000efd07000080fa000000060060
:102850000200fa00004f7800000a200010088800eb
:102860004110200091407800f0ccb30000c060001f
:1028700004e1b7008460a8008c60a8005109200022
:102880009140780000c7b30000c0700095e0b70029
:102890009e40780061c06000c700dd0005c1bf0038
:1028a0000074a1000140700005e1b7000080fa004b
:1028b000000006000000fa00a00320006008880065
:1028c0000111200091407800f0ccb30000c06000fe
:1028d00010e1b70084c0a8008cc0a80071092000d6
:1028e0009140780080cfb30000c060006040b3002a
:1028f00097e0b70011e1a9000080fa00000006008f
:102900000000fa000080fa00000006000000fa0053
:1029100010062000a0108800c120200091407800ff
:1029200090cfb30000c060000ce2b7000c02a90019
:102930000cc2a9000d42a8000de2a8000ca2a9003b
:102940000f62a9000f42a8008520a9008d20a900d0
:102950008109200091407800f0c8b30000c06000f9
:1029600001c6b3000140700098e0b7000ec2bf007e
:10297000f043b20001c4b300014070000ee2b700a2
:102980000080fa00000006000200fa00004f780004
:102990000fc2bf00624060000004e000fcff3a008c
:1029a0001e80fb00801088000080fa0000000600f6
:1029b0000a00fa0030079800410798004e00900086
:1029c000823e2000110009000280d800804078007b
:1029d0000e00e800014878004e009000823e200082
:1029e000110009000280d8008000fd00420620008e
:1029f000110009000280d800804078000e00e80035
:102a0000114098004e00900042062000110009007d
:102a10000280d8008000fd00a20020001100090003
:102a20000280d800804078000e00e8002140980025
:102a30004e009000a2002000110009000280d80082
:102a40008000fd00804078000e00e80031409800d2
:102a50000040eb00004f7800070037001e80fb00ad
:102a6000800078003e009000008040001040780018
:102a7000c5ff07001e4fe8001e80fb0080007800a5
:102a80003e00900000804000104078000004e0000c
:102a9000f2ff3a00a0c3b300bbff07000040eb0009
:102aa000004f7800060037009e80fb000e00e80013
:102ab000614078000043b000b3ff07001e4fe800fc
:102ac00030c0b3009e4f1000f7ff3600a0c0b30027
:102ad000adff0700d0c0b300abff07000080fa00d5
:102ae000000006000400fa00100798000040eb0008
:102af000004f7800070037001e80fb008000780040
:102b00001e00900000804000104078009eff0700eb
:102b10001e4fe8001e80fb00800078001e00900021
:102b200000804000104078000004e000f2ff3a000e
:102b3000a0c0b30094ff0700d0c0b30092ff07000d
:102b40000080fa00000006000400fa001007980058
:102b50000040eb00004f7800070037001e80fb00ac
:102b6000800078001e009000008040001040780037
:102b700085ff07001e4fe8001e80fb0080007800e4
:102b80001e00900000804000104078000004e0002b
:102b9000f2ff3a000080fa00000006000800fa0088
:102ba00040479800310798003e009000823e200088
:102bb000110009000280d800004f78003e0090000c
:102bc000823e2000110009000280d8008000fd0034
:102bd00042062000110009000280d800104798002a
:102be0003e00900042062000110009000280d8003b
:102bf0008000fd00a2002000110009000280d80022
:102c0000204798003e009000a2002000110009001b
:102c10000280d8008000fd00304798004e409000b0
:102c200059ff0700a0c3b30057ff07001e407800fc
:102c30000043b00054ff07001e4090000043b00066
:102c400051ff07002e4090000043b0004eff0700e8
:102c50003e4090000043b0004bff0700d0c0b300df
:102c600049ff0700a0c0b30047ff07000080fa003b
:102c7000000006000400fa00100798000000eb00b6
:102c8000000f78001e009000104078008080fb004c
:102c900000fd2f0080804000803e20000088b900a9
:102ca000000f78001e0090000000e800104078003f
:102cb0008080fb00400620000088b9009e00400094
:102cc00000d42e00008f40001e0090000080e8001d
:102cd000104078000080fb006a00b9009e004000b0
:102ce00000e22f00008f40001e00900063004000b3
:102cf000104078000080fb009e00400000fd2f0087
:102d0000008f40001e0078000080fa0000000600de
:102d10000800fa0020079800310798000040eb00f7
:102d2000204798000040eb00204798001200370031
:102d30002e4090000080fb000000400080007800e2
:102d40002e009000008140002e4090000080fb008b
:102d500000004000800078002e00900000804000bd
:102d60000080e80010007800000978002e409000f4
:102d70000040e800204798002e409000e84f5000a7
:102d8000ebff36002e00900072004000be00900065
:102d9000010878000000eb00000f78000040eb0015
:102da000204798000b0037002e4090000080fb0069
:102db00000004000800078002e009000008040005d
:102dc000100078001e0f40002e4090000040e800e8
:102dd000204798002e409000e94f5000f2ff360047
:102de0001e00780001002000a2002000811f780052
:102df000110009004288d800cf0078000080fa0056
:102e0000000006000600fa00881f7800000f780016
:102e1000100320009e0f100003003e00200320003e
:102e2000000f780005003700803e20009e0f100044
:102e300002003600803e2000000f7800e0fc2f00ea
:102e40001e0440006140b900ebf80700100798002d
:102e5000210798000800e00007003d000200200064
:102e6000037824001e009000ae0090000ef90700c9
:102e7000100798002107980092b92b0063f02300f7
:102e80001e009000ae00900064f9070002002000d0
:102e90000332240004f9070094f907004f04780076
:102ea0000080fa00000006003600f800809fbe0097
:102eb000829fbe00849fbe00869fbe003400f80043
:102ec00000c0b300a00188000000fa008460a900df
:102ed0002bc8bf000004e00015003a0070458000d8
:102ee0000000e8007045880071458000f070220005
:102ef000808f50000e003600cac2bf000004a2003e
:102f000061406000614060006140600061416000bc
:102f1000a12c200091407800e0cfb30000c06000f9
:102f200002407000cae2b7000000eb007045880064
:102f3000dc62a8002ac8bf000080fb008001780086
:102f400002802000417d29004088200079fc070094
:102f5000dc62a9000080fa003400f9004f03be00d3
:102f60004f02be004f01be004f00be003600f90008
:102f7000004006000000fa008400a9000080fa006a
:102f8000004006003400f800881f780008c0b30035
:102f9000a80188004f0478000000fa000080fa00c1
:082fa0003400f90000400600b6
:020000040000fa
:0200000401f009
:04000000f7ff000006
:020000040000fa
:0200000401f009
:04000400ff7f00007a
:020000040000fa
:0200000401f009
:040008007fff000076
:020000040000fa
:0200000401f009
:04001400ffff0000ea
:020000040000fa
:1000080020280000202800002028000020280000c8
:1000180020280000202800002028000020280000b8
:10002800ba170000202800002028000054170000fc
:100038002028000020280000202800002028000098
:1000480020280000c21700002028000020280000f7
:100058002028000020280000202800002028000078
:100068002028000020280000202800002028000068
:100078002028000020280000202800002028000058
:100088002028000020280000202800002028000048
:100098002028000020280000202800002028000038
:1000a8002028000020280000202800002028000028
:1000b8002028000020280000202800002028000018
:1000c8002028000020280000202800002028000008
:1000d80020280000202800002028000020280000f8
:1000e80020280000202800002028000020280000e8
:0800f800202800002028000070
:020000040000fa
:1001080020280000202800002028000020280000c7
:1001180020280000202800002028000020280000b7
:10012800ba170000202800002028000054170000fb
:100138002028000020280000202800002028000097
:1001480020280000c21700002028000020280000f6
:100158002028000020280000202800002028000077
:100168002028000020280000202800002028000067
:100178002028000020280000202800002028000057
:100188002028000020280000202800002028000047
:100198002028000020280000202800002028000037
:1001a8002028000020280000202800002028000027
:1001b8002028000020280000202800002028000017
:1001c8002028000020280000202800002028000007
:1001d80020280000202800002028000020280000f7
:1001e80020280000202800002028000020280000e7
:0801f80020280000202800006f
:020000040000fa
:102fa8000000000001000000020000000300000013
:102fb80004000000050000000600000007000000f3
:102fc80008000000090000000a0000000b000000d3
:102fd8000c0000000d0000000e0000000f000000b3
:102fe8001000000011000000120000001300000093
:102ff8001400000015000000160000001700000073
:1030080018000000190000001a0000001b00000052
:103018001c0000001d0000001e0000001f00000032
:103028002000000021000000220000002300000012
:1030380024000000250000002600000027000000f2
:1030480028000000290000002a0000002b000000d2
:103058002c0000002d0000002e0000002f000000b2
:103068003000000031000000320000003300000092
:103078003400000035000000360000003700000072
:1030880038000000390000003a0000003b00000052
:103098003c0000003d0000003e0000003f00000032
:1030a8004000000041000000420000004300000012
:1030b80044000000450000004600000047000000f2
:1030c80048000000490000004a0000004b000000d2
:1030d8004c0000004d0000004e0000004f000000b2
:1030e8005000000051000000520000005300000092
:1030f8005400000055000000560000005700000072
:1031080058000000590000005a0000005b00000051
:103118005c0000005d0000005e0000005f00000031
:103128006000000061000000620000006300000011
:1031380064000000650000006600000067000000f1
:1031480068000000690000006a0000006b000000d1
:103158006c0000006d0000006e0000006f000000b1
:103168007000000071000000720000007300000091
:103178007400000075000000760000007700000071
:1031880078000000790000007a0000007b00000051
:103198007c0000007d0000007e0000007f00000031
:1031a8008000000081000000820000008300000011
:1031b80084000000850000008600000087000000f1
:1031c80088000000890000008a0000008b000000d1
:1031d8008c0000008d0000008e0000008f000000b1
:1031e8009000000091000000920000009200000092
:1031f8009300000094000000950000009600000075
:103208009700000098000000990000009a00000054
:103218009b0000009c0000009d0000009e00000034
:103228009f000000a0000000a1000000a200000014
:10323800a3000000a4000000a5000000a6000000f4
:10324800a7000000a8000000a9000000aa000000d4
:10325800ab000000ac000000ad000000ae000000b4
:10326800af000000b0000000b1000000b200000094
:10327800b3000000b4000000b5000000b500000075
:10328800b6000000b7000000b8000000b900000058
:10329800ba000000bb000000bc000000bd00000038
:1032a800be000000bf000000c0000000c100000018
:1032b800c2000000c3000000c4000000c5000000f8
:1032c800c6000000c7000000c8000000c9000000d8
:1032d800ca000000cb000000cc000000cc000000b9
:1032e800cd000000ce000000cf000000d00000009c
:1032f800d1000000d2000000d3000000d40000007c
:10330800d5000000d6000000d7000000d80000005b
:10331800d9000000da000000db000000dc0000003b
:10332800dd000000de000000de000000df0000001d
:10333800e0000000e1000000e2000000e3000000ff
:10334800e4000000e5000000e6000000e7000000df
:10335800e8000000e9000000ea000000eb000000bf
:10336800ec000000ed000000ed000000ee000000a1
:10337800ef000000f0000000f1000000f200000083
:10338800f3000000f4000000f5000000f600000063
:10339800f7000000f8000000f9000000fa00000043
:1033a800fb000000fb000000fc000000fd00000026
:1033b800fe000000ff000000000100000101000005
:1033c80002010000030100000401000005010000e3
:1033d80006010000060100000701000008010000c6
:1033e800090100000a0100000b0100000c010000a7
:1033f8000d0100000e0100000f0100001001000087
:103408001101000011010000120100001301000069
:10341800140100001501000016010000170100004a
:1034280018010000190100001a0100001a0100002b
:103438001b0100001c0100001d0100001e0100000e
:103448001f010000200100002101000022010000ee
:1034580023010000230100002401000025010000d1
:1034680026010000270100002801000029010000b2
:103478002a0100002b0100002c0100002c01000093
:103488002d0100002e0100002f0100003001000076
:103498003101000032010000330100003301000057
:1034a800340100003501000036010000370100003a
:1034b80038010000390100003a0100003b0100001a
:1034c8003b0100003c0100003d0100003e010000fe
:1034d8003f010000400100004101000041010000df
:1034e80042010000430100004401000045010000c2
:1034f80046010000470100004801000048010000a3
:10350800490100004a0100004b0100004c01000085
:103518004d0100004e0100004e0100004f01000067
:103528005001000051010000520100005301000049
:10353800540100005401000055010000560100002c
:103548005701000058010000590100005a0100000d
:103558005a0100005b0100005c0100005d010000f1
:103568005e0100005f0100005f01000060010000d3
:1035780061010000620100006301000064010000b5
:103588006401000065010000660100006701000099
:103598006801000069010000690100006a0100007b
:1035a8006b0100006c0100006d0100006e0100005d
:1035b8006e0100006f010000700100007101000041
:1035c8007201000073010000730100007401000023
:1035d8007501000076010000770100007701000006
:1035e80078010000790100007a0100007b010000e9
:1035f8007b0100007c0100007d0100007e010000cd
:103608007f010000800100008001000081010000ae
:103618008201000083010000840100008401000091
:103628008501000086010000870100008801000074
:1036380088010000890100008a0100008b01000058
:103648008b0100008c0100008d0100008e0100003c
:103658008f0100008f01000090010000910100001f
:103668009201000093010000930100009401000002
:1036780095010000960100009601000097010000e6
:1036880098010000990100009a0100009a010000c9
:103698009b0100009c0100009d0100009d010000ad
:1036a8009e0100009f010000a0010000a001000091
:1036b800a1010000a2010000a3010000a301000075
:1036c800a4010000a5010000a6010000a701000058
:1036d800a7010000a8010000a9010000aa0100003c
:1036e800aa010000ab010000ac010000ad01000020
:1036f800ad010000ae010000af010000b001000004
:10370800b0010000b1010000b2010000b2010000e8
:10371800b3010000b4010000b5010000b5010000cc
:10372800b6010000b7010000b8010000b8010000b0
:10373800b9010000ba010000bb010000bb01000094
:10374800bc010000bd010000bd010000be01000079
:10375800bf010000c0010000c0010000c10100005d
:10376800c2010000c2010000c3010000c401000042
:10377800c5010000c5010000c6010000c701000026
:10378800c7010000c8010000c9010000ca0100000b
:10379800ca010000cb010000cc010000cc010000f0
:1037a800cd010000ce010000ce010000cf010000d5
:1037b800d0010000d1010000d1010000d2010000b9
:1037c800d3010000d3010000d4010000d50100009e
:1037d800d5010000d6010000d7010000d701000084
:1037e800d8010000d9010000d9010000da01000069
:1037f800db010000db010000dc010000dd0100004e
:10380800dd010000de010000df010000df01000033
:10381800e0010000e1010000e1010000e201000018
:10382800e3010000e3010000e4010000e5010000fd
:10383800e5010000e6010000e7010000e7010000e3
:10384800e8010000e9010000e9010000ea010000c8
:10385800eb010000eb010000ec010000ed010000ad
:10386800ed010000ee010000ee010000ef01000094
:10387800f0010000f0010000f1010000f201000079
:10388800f2010000f3010000f4010000f40100005f
:10389800f5010000f5010000f6010000f701000045
:1038a800f7010000f8010000f9010000f90100002b
:1038b800fa010000fa010000fb010000fc01000011
:1038c800fc010000fd010000fd010000fe010000f8
:1038d800ff010000ff0100000002000000020000dc
:1038e80001020000020200000202000003020000c0
:1038f80003020000040200000502000005020000a7
:10390800060200000602000007020000080200008c
:103918000802000009020000090200000a02000073
:103928000a0200000b0200000c0200000c0200005a
:103938000d0200000d0200000e0200000f02000040
:103948000f02000010020000100200001102000027
:10395800110200001202000012020000130200000f
:1039680014020000140200001502000015020000f5
:1039780016020000160200001702000018020000dc
:103988001802000019020000190200001a020000c3
:103998001a0200001b0200001b0200001c020000ab
:1039a8001c0200001d0200001d0200001e02000093
:1039b8001f0200001f020000200200002002000079
:1039c8002102000021020000220200002202000061
:1039d8002302000023020000240200002402000049
:1039e8002502000025020000260200002602000031
:1039f8002702000027020000280200002802000019
:103a080029020000290200002a0200002a02000000
:103a18002b0200002b0200002c0200002c020000e8
:103a28002d0200002d0200002e0200002e020000d0
:103a38002f0200002f0200003002000030020000b8
:103a480031020000310200003202000032020000a0
:103a58003302000033020000340200003402000088
:103a68003502000035020000360200003602000070
:103a78003702000037020000380200003802000058
:103a88003802000039020000390200003a02000042
:103a98003a0200003b0200003b0200003c0200002a
:103aa8003c0200003d0200003d0200003d02000013
:103ab8003e0200003e0200003f0200003f020000fc
:103ac80040020000400200004102000041020000e4
:103ad80041020000420200004202000043020000ce
:103ae80043020000440200004402000044020000b7
:103af80045020000450200004602000046020000a0
:103b08004702000047020000470200004802000088
:103b18004802000049020000490200004902000072
:103b28004a0200004a0200004b0200004b0200005b
:103b38004b0200004c0200004c0200004d02000045
:103b48004d0200004d0200004e0200004e0200002f
:103b58004f0200004f0200004f0200005002000018
:103b68005002000050020000510200005102000003
:103b780052020000520200005202000053020000ec
:103b880053020000530200005402000054020000d7
:103b980055020000550200005502000056020000c0
:103ba80056020000560200005702000057020000ab
:103bb8005702000058020000580200005802000096
:103bc80059020000590200005a0200005a0200007f
:103bd8005a0200005b0200005b0200005b0200006a
:103be8005c0200005c0200005c0200005d02000054
:103bf8005d0200005d0200005e0200005e0200003f
:103c08005e0200005e0200005f0200005f0200002a
:103c18005f02000060020000600200006002000015
:103c280061020000610200006102000062020000ff
:103c380062020000620200006302000063020000ea
:103c480063020000630200006402000064020000d6
:103c580064020000650200006502000065020000c1
:103c680065020000660200006602000066020000ad
:103c78006702000067020000670200006702000098
:103c88006802000068020000680200006902000083
:103c98006902000069020000690200006a0200006f
:103ca8006a0200006a0200006a0200006b0200005b
:103cb8006b0200006b0200006b0200006c02000047
:103cc8006c0200006c0200006c0200006d02000033
:103cd8006d0200006d0200006d0200006e0200001f
:103ce8006e0200006e0200006e0200006f0200000b
:103cf8006f0200006f0200006f0200006f020000f8
:103d080070020000700200007002000070020000e3
:103d180071020000710200007102000071020000cf
:103d280071020000720200007202000072020000bc
:103d380072020000730200007302000073020000a8
:103d48007302000073020000740200007402000095
:103d58007402000074020000740200007402000083
:103d6800750200007502000075020000750200006f
:103d7800750200007602000076020000760200005c
:103d8800760200007602000076020000770200004a
:103d98007702000077020000770200007702000037
:103da8007702000078020000780200007802000024
:103db8007802000078020000780200007902000012
:103dc80079020000790200007902000079020000ff
:103dd80079020000790200007a0200007a020000ed
:103de8007a0200007a0200007a0200007a020000db
:103df8007a0200007b0200007b0200007b020000c8
:103e08007b0200007b0200007b0200007b020000b6
:103e18007b0200007c0200007c0200007c020000a3
:103e28007c0200007c0200007c0200007c02000092
:103e38007c0200007c0200007d0200007d02000080
:103e48007d0200007d0200007d0200007d0200006e
:103e58007d0200007d0200007d0200007d0200005e
:103e68007e0200007e0200007e0200007e0200004a
:103e78007e0200007e0200007e0200007e0200003a
:103e88007e0200007e0200007e0200007e0200002a
:103e98007e0200007f0200007f0200007f02000017
:103ea8007f0200007f0200007f0200007f02000006
:103eb8007f0200007f0200007f0200007f020000f6
:103ec8007f0200007f0200007f0200007f020000e6
:103ed8007f0200007f0200007f02000080020000d5
:103ee80080020000800200008002000080020000c2
:103ef80080020000800200008002000080020000b2
:103f080080020000800200008002000080020000a1
:103f18008002000080020000800200008002000091
:103f28008002000080020000800200008002000081
:103f38008002000080020000800200008002000071
:103f48008002000080020000800200008002000061
:103f58008002000080020000800200008002000051
:103f68008002000080020000800200008002000041
:103f78008002000080020000800200008002000031
:103f88008002000080020000800200008002000021
:103f98008002000080020000800200008002000011
:103fa80080020000800200007f0200007f02000003
:103fb8007f0200007f0200007f0200007f020000f5
:103fc8007f0200007f0200007f0200007f020000e5
:103fd8007f0200007f0200007f0200007f020000d5
:103fe8007f0200007f0200007f0200007f020000c5
:103ff8007e0200007e0200007e0200007e020000b9
:104008007e0200007e0200007e0200007e020000a8
:104018007e0200007e0200007e0200007e02000098
:104028007e0200007d0200007d0200007d0200008b
:104038007d0200007d0200007d0200007d0200007c
:104048007d0200007d0200007d0200007c0200006d
:104058007c0200007c0200007c0200007c02000060
:104068007c0200007c0200007c0200007c02000050
:104078007b0200007b0200007b0200007b02000044
:104088007b0200007b0200007b0200007b02000034
:104098007a0200007a0200007a0200007a02000028
:1040a8007a0200007a0200007a0200007902000019
:1040b800790200007902000079020000790200000c
:1040c80079020000790200007802000078020000fe
:1040d80078020000780200007802000078020000f0
:1040e80077020000770200007702000077020000e4
:1040f80077020000770200007602000076020000d6
:1041080076020000760200007602000076020000c7
:1041180075020000750200007502000075020000bb
:1041280075020000740200007402000074020000ae
:1041380074020000740200007302000073020000a1
:104148007302000073020000730200007202000094
:104158007202000072020000720200007202000087
:10416800710200007102000071020000710200007b
:10417800710200007002000070020000700200006e
:10418800700200006f0200006f0200006f02000062
:104198006f0200006f0200006e0200006e02000055
:1041a8006e0200006e0200006d0200006d02000049
:1041b8006d0200006d0200006c0200006c0200003d
:1041c8006c0200006c0200006b0200006b02000031
:1041d8006b0200006b0200006a0200006a02000025
:1041e8006a0200006a020000690200006902000019
:1041f800690200006802000068020000680200000e
:104208006802000067020000670200006702000001
:1042180067020000660200006602000066020000f5
:1042280065020000650200006502000065020000ea
:1042380064020000640200006402000063020000df
:1042480063020000630200006202000062020000d4
:1042580062020000620200006102000061020000c8
:1042680061020000600200006002000060020000bd
:104278005f0200005f0200005f0200005e020000b3
:104288005e0200005e0200005d0200005d020000a8
:104298005d0200005c0200005c0200005c0200009d
:1042a8005b0200005b0200005b0200005a02000093
:1042b8005a0200005a020000590200005902000088
:1042c800590200005802000058020000580200007d
:1042d8005702000057020000570200005602000073
:1042e8005602000056020000550200005502000068
:1042f800540200005402000054020000530200005f
:104308005302000053020000520200005202000053
:104318005202000051020000510200005002000049
:1043280050020000500200004f0200004f0200003f
:104338004e0200004e0200004e0200004d02000036
:104348004d0200004c0200004c0200004c0200002c
:104358004b0200004b0200004b0200004a02000022
:104368004a02000049020000490200004802000019
:10437800480200004802000047020000470200000f
:104388004602000046020000460200004502000006
:1043980045020000440200004402000043020000fd
:1043a80043020000430200004202000042020000f3
:1043b80041020000410200004002000040020000eb
:1043c800400200003f0200003f0200003e020000e1
:1043d8003e0200003d0200003d0200003c020000d9
:1043e8003c0200003c0200003b0200003b020000cf
:1043f8003a0200003a0200003902000039020000c7
:1044080038020000380200003702000037020000be
:1044180036020000360200003602000035020000b5
:1044280035020000340200003402000033020000ac
:1044380033020000320200003202000031020000a4
:104448003102000030020000300200002f0200009c
:104458002f0200002e0200002e0200002d02000094
:104468002d0200002c0200002c0200002b0200008c
:104478002b0200002a0200002a0200002902000084
:10448800290200002802000028020000270200007c
:104498002702000026020000260200002502000074
:1044a800250200002402000024020000230200006c
:1044b8002302000022020000220200002102000064
:1044c80021020000200200001f0200001f0200005d
:1044d8001e0200001e0200001d0200001d02000056
:1044e8001c0200001c0200001b0200001b0200004e
:1044f8001a0200001a020000190200001802000047
:10450800180200001702000017020000160200003f
:104518001602000015020000150200001402000037
:104528001302000013020000120200001202000031
:104538001102000011020000100200001002000029
:104548000f0200000e0200000e0200000d02000023
:104558000d0200000c0200000c0200000b0200001b
:104568000a0200000a020000090200000902000015
:10457800080200000702000007020000060200000f
:104588000602000005020000040200000402000008
:104598000302000003020000020200000202000001
:1045a800010200000002000000020000ff010000fc
:1045b800fe010000fe010000fd010000fd010000f9
:1045c800fc010000fb010000fb010000fa010000f3
:1045d800fa010000f9010000f8010000f8010000ec
:1045e800f7010000f7010000f6010000f5010000e6
:1045f800f5010000f4010000f3010000f3010000e0
:10460800f2010000f1010000f1010000f0010000da
:10461800f0010000ef010000ee010000ee010000d3
:10462800ed010000ec010000ec010000eb010000ce
:10463800ea010000ea010000e9010000e9010000c8
:10464800e8010000e7010000e7010000e6010000c2
:10465800e5010000e5010000e4010000e3010000bd
:10466800e3010000e2010000e1010000e1010000b7
:10467800e0010000df010000df010000de010000b2
:10468800dd010000dd010000dc010000db010000ad
:10469800db010000da010000d9010000d9010000a7
:1046a800d8010000d7010000d7010000d6010000a2
:1046b800d5010000d4010000d4010000d30100009e
:1046c800d2010000d2010000d1010000d001000099
:1046d800d0010000cf010000ce010000ce01000093
:1046e800cd010000cc010000cb010000cb0100008f
:1046f800ca010000c9010000c9010000c80100008a
:10470800c7010000c7010000c6010000c501000084
:10471800c4010000c4010000c3010000c201000080
:10472800c2010000c1010000c0010000bf0100007b
:10473800bf010000be010000bd010000bd01000076
:10474800bc010000bb010000ba010000ba01000072
:10475800b9010000b8010000b7010000b70100006e
:10476800b6010000b5010000b5010000b401000069
:10477800b3010000b2010000b2010000b101000065
:10478800b0010000af010000af010000ae01000061
:10479800ad010000ac010000ac010000ab0100005d
:1047a800aa010000a9010000a9010000a801000059
:1047b800a7010000a6010000a6010000a501000055
:1047c800a4010000a3010000a3010000a201000051
:1047d800a1010000a0010000a00100009f0100004d
:1047e8009e0100009d0100009c0100009c0100004a
:1047f8009b0100009a010000990100009901000046
:104808009801000097010000960100009501000042
:10481800950100009401000093010000920100003e
:104828009201000091010000900100008f0100003a
:104838008e0100008e0100008d0100008c01000037
:104848008b0100008b0100008a0100008901000033
:104858008801000087010000870100008601000030
:10486800850100008401000083010000830100002d
:104878008201000081010000800100007f0100002a
:104888007f0100007e0100007d0100007c01000026
:104898007b0100007a0100007a0100007901000024
:1048a8007801000077010000760100007601000021
:1048b800750100007401000073010000720100001e
:1048c8007101000071010000700100006f0100001b
:1048d8006e0100006d0100006d0100006c01000018
:1048e8006b0100006a010000690100006801000016
:1048f8006801000067010000660100006501000012
:10490800640100006301000063010000620100000f
:1049180061010000600100005f0100005e0100000d
:104928005e0100005d0100005c0100005b01000009
:104938005a01000059010000580100005801000008
:104948005701000056010000550100005401000005
:104958005301000053010000520100005101000002
:10496800500100004f0100004e0100004d01000001
:104978004d0100004c0100004b0100004a010000fd
:1049880049010000480100004701000046010000fd
:1049980046010000450100004401000043010000f9
:1049a80042010000410100004001000040010000f8
:1049b8003f0100003e0100003d0100003c010000f5
:1049c8003b0100003a0100003901000039010000f4
:1049d80038010000370100003601000035010000f1
:1049e80034010000330100003201000032010000f0
:1049f80031010000300100002f0100002e010000ed
:104a08002d0100002c0100002b0100002a010000ec
:104a18002a010000290100002801000027010000e8
:104a280026010000250100002401000023010000e8
:104a380022010000210100002101000020010000e6
:104a48001f0100001e0100001d0100001c010000e4
:104a58001b0100001a0100001901000018010000e4
:104a680018010000170100001601000015010000e0
:104a780014010000130100001201000011010000e0
:104a8800100100000f0100000f0100000e010000de
:104a98000d0100000c0100000b0100000a010000dc
:104aa80009010000080100000701000006010000dc
:104ab80005010000040100000401000003010000da
:104ac800020100000101000000010000ff000000d9
:104ad800fe000000fd000000fc000000fb000000dc
:104ae800fa000000f9000000f8000000f8000000db
:104af800f7000000f6000000f5000000f4000000d8
:104b0800f3000000f2000000f1000000f0000000d7
:104b1800ef000000ee000000ed000000ec000000d7
:104b2800eb000000ea000000ea000000e9000000d5
:104b3800e8000000e7000000e6000000e5000000d3
:104b4800e4000000e3000000e2000000e1000000d3
:104b5800e0000000df000000de000000dd000000d3
:104b6800dc000000db000000da000000da000000d2
:104b7800d9000000d8000000d7000000d6000000cf
:104b8800d5000000d4000000d3000000d2000000cf
:104b9800d1000000d0000000cf000000ce000000cf
:104ba800cd000000cc000000cb000000ca000000cf
:104bb800c9000000c8000000c7000000c7000000ce
:104bc800c6000000c5000000c4000000c3000000cb
:104bd800c2000000c1000000c0000000bf000000cb
:104be800be000000bd000000bc000000bb000000cb
:104bf800ba000000b9000000b8000000b7000000cb
:104c0800b6000000b5000000b4000000b3000000ca
:104c1800b2000000b1000000b0000000af000000ca
:104c2800ae000000ae000000ad000000ac000000c7
:104c3800ab000000aa000000a9000000a8000000c6
:104c4800a7000000a6000000a5000000a4000000c6
:104c5800a3000000a2000000a1000000a0000000c6
:104c68009f0000009e0000009d0000009c000000c6
:104c78009b0000009a0000009900000098000000c6
:104c880097000000960000009500000094000000c6
:104c980093000000920000009100000090000000c6
:104ca8008f0000008e0000008d0000008c000000c6
:104cb8008b0000008a0000008900000088000000c6
:104cc80087000000860000008600000085000000c4
:104cd80084000000830000008200000081000000c2
:104ce800800000007f0000007e0000007d000000c2
:104cf8007c0000007b0000007a00000079000000c2
:104d080078000000770000007600000075000000c1
:104d180074000000730000007200000071000000c1
:104d2800700000006f0000006e0000006d000000c1
:104d38006c0000006b0000006a00000069000000c1
:104d480068000000670000006600000065000000c1
:104d580064000000630000006200000061000000c1
:104d6800600000005f0000005e0000005d000000c1
:104d78005c0000005b0000005a00000059000000c1
:104d880058000000570000005600000055000000c1
:104d980054000000530000005200000051000000c1
:104da800500000004f0000004e0000004d000000c1
:104db8004c0000004b0000004a00000049000000c1
:104dc80048000000470000004600000045000000c1
:104dd80044000000430000004200000041000000c1
:104de800400000003f0000003e0000003d000000c1
:104df8003c0000003b0000003a00000039000000c1
:104e080038000000370000003600000035000000c0
:104e180034000000330000003200000031000000c0
:104e2800300000002f0000002e0000002d000000c0
:104e38002c0000002b0000002a00000029000000c0
:104e480028000000270000002600000025000000c0
:104e580024000000230000002200000021000000c0
:104e6800200000001f0000001e0000001d000000c0
:104e78001c0000001b0000001a00000019000000c0
:104e880018000000170000001600000015000000c0
:104e980014000000130000001200000011000000c0
:104ea800100000000f0000000e0000000d000000c0
:104eb8000c0000000b0000000a00000009000000c0
:104ec80008000000070000000600000005000000c0
:104ed80004000000030000000200000001000000c0
:104ee80053540000415200005400000041440000a7
:104ef80043250000643d0000256400002c200000cc
:104f0800003b00000a0d0000005300006f6600001f
:104f1800742d00007374000061720000743b00007f
:104f28000a0d0000004300004f5500004e540000d9
:104f3800006d000061760000673000003d2500002c
:104f480064280000416400006a2900002c20000049
:104f5800006d000061760000673100003d2500000b
:084f6800643b000000000000a2
:020000040000fa
:104f7000840800002c000000020000000000000077
:104f80000000000000000000000000000000000021
:104f90000000000000000000000000000000000011
:104fa0000000000000000000000000000000000001
:104fb0000000000000000000000800008400000065
:104fc00000000000d20800001200000002000000f3
:104fd00001000200000400000800100000000000b2
:104fe000202b2d0023300000e40800000800000002
:104ff00002000000686a6c00747a4c000000000037
:10500000b008000022000000020000003031320031
:105010003334350036373800396162006364650027
:10502000660030003132330034353600373839000d
:1050300041424300444546000000000000000000db
:020000040000fa
:045040000000fe006e
:00000001FF
