:020000040000fa
:080000000001040000000000f3
:020000040000fa
:100200008f9c200080ff200000018800000000007b
:10021000050007000c000700322402000000000067
:100220000040da000000fe004440a900000b22005c
:100230000000e0000300320000002000a001880060
:100240004440a80000000600000624000100200031
:100250001600370062004000e080480091018800ed
:100260009001ba0062004000e080480091018800df
:100270009002ba0062004000e08048000002eb00fb
:100280006028e10005003a008301e900070033001f
:10029000038009000059eb00040037006128e100e9
:1002a000010032000082eb00050007009101880088
:1002b0001001ba000200e000e6ff3a00000005006d
:1002c000910188008002780062004000e0804800d0
:1002d0003559ba008301e900080032002559ba00f7
:1002e0008301e900050032000400e000f4ff320061
:1002f00015d9ba008301e900f1ff3a0000000600b9
:10030000000000000000000080017800000178007b
:1003100031407800005978000004e000fcff3a000a
:100320000300780000000600881f780002047800af
:1003300014000700080040004f0478000000060089
:100340000000fa00881f7800000478003fb9970089
:10035000ea81570080007800401920001000070053
:10036000800078000000e000020035000040eb0053
:1003700080707c00010078004f0478000080fa0053
:10038000000006008001780002003700b1597800b3
:100390000201e9000200e000fcff3a000000060054
:1003a0006200fa00889fbe008a9fbe000004be0063
:1003b000020578008300780060f92f000f004000ec
:1003c000b000070088979f0099979f000000eb00fe
:1003d000a09f9f009a4578000b80fb000000ea0078
:1003e000cf04de0050c2b30080cf550002003200bf
:1003f00009047800010037000904e9000800e00062
:100400000b0034001f909700080178008a007800e4
:100410008f9197000300010090979f000000e0007b
:10042000930032002f98970000004400a09f9f0087
:100430000905450050c2b30080cf550004003200ca
:100440000b04e000e3ff3a002f9897008900370083
:100450000000eb00809f9f00f0979f00e0979f00b7
:10046000d0979f00c0979f00b0979f00c09f9f00ac
:100470000900370020982000008050000000400054
:1004800061972000e08078004f989700010070008d
:10049000c09f9f000a05e8001a4478008800fb000e
:1004a000209820007c000700800078000000e00019
:1004b000f0ff3a00a0c2b300804f54000e003a0093
:1004c000bf8897000180e900b08f9f00100078007e
:1004d000b09f9f000000e00005003d000000ea0022
:1004e000b09f9f004f9897000020a000c09f9f00e2
:1004f0000a05e80010003700b19f9f00090037008f
:10050000bf989700f0ff2700808f50000400320052
:100510006a08b9000000410003004000b09f9f003e
:100520000a05e8001a01fb0003fd2f00030041004b
:10053000e90f5000f2ff3600e0c2b3009a4f1000fe
:10054000040032000080eb00909f9f008a04780036
:100550001c0037008a04e800a0c2b300994f1000c5
:1005600007003a00bf8897000180e900b08f9f0024
:1005700010007800909f9f008a84e80011003700e7
:100580000000eb00909f9f00090037009f989700a4
:10059000f0ff2700808f5000040032006a08b90085
:1005a0000000410003004000909f9f008904e80084
:1005b0001901fb0003fd2f0003004100e90f50006b
:1005c000f2ff3600194478008800fb00e09b200011
:1005d000310007000000e00002003a00004478000b
:1005e000010037008904e800a87f9f0080c6b3009f
:1005f000804f540004003a00994f14000a003a005a
:100600006640500006003700c0c6b300804f54005b
:1006100005003a00994f140003003a00654040007d
:10062000a07f9f008904e8000905e800c8fb2f00af
:100630000f04440060f92f000f0040008085e8009f
:100640008801780019417800800078000b0078005c
:10065000e40007000000e00005003a008800780090
:100660000b007800150007000000e00059ff3d0076
:100670000080eb004f05be004f04be000080fa0072
:10068000000006000200fa00f1bf9f000108780098
:100690000080fa0000000600040037000204e000b9
:1006a00001003a00000005000000e8001041780059
:1006b000814f5100f9ff3a00000006000400fa00e3
:1006c000889fbe008a9fbe008c1f780000047800bf
:1006d0000106780070089000f800900001005000ba
:1006e0008808900001005000980890000100500018
:1006f000a808900001005000b808900001005000c8
:10070000c80890008105500000022200a0bf9f0091
:100710000003230090bf9f00081090000028a30052
:1007200018003a000b00e000160034008b0478003b
:1007300009057800e28f5400020036002a002000ec
:10074000020037000900e0000b0034005800900060
:10075000c80190000a017800ec80570003000100f6
:10076000500498000000e0009600320068089000f5
:1007700000004500600c98008a8454004240a900a3
:10078000ebff3c00780190000200e0000b00340019
:1007900058009000c80190008c0078000300010010
:1007a000500498000000e0008600320068089000c5
:1007b000f800900001004000600c9800880c900048
:1007c0000900e0001500340009057800e28f5400ac
:1007d000020036002a002000020037000900e00075
:1007e0000b00340058009000c80190000a01780006
:1007f000ee80570003000100500498000000e00064
:10080000700032006808900000004500600c9800fd
:100810008a8454004240a900ebff3c001809900074
:100820000200e0000b003400e80090005800900047
:10083000c801900003000100500498000000e0008f
:1008400060003200680890009808900001004000a5
:10085000600c9800a80c90000900e000150034001e
:1008600009057800e28f5400020036002a002000bb
:10087000020037000900e0000b003400580090002f
:10088000c80190000a017800ee80570003000100c3
:10089000500498000000e0004a0032006808900010
:1008a00000004500600c98008a8454004240a90072
:1008b000ebff3c00380990000200e0000d0034001e
:1008c000e8009000180890008080400058009000d8
:1008d000c801900003000100500498000000e000ef
:1008e0003800320068089000b8089000010040000d
:1008f000600c9800c80c90000900e000150034005e
:1009000009057800e28f5400020036002a0020001a
:10091000020037000900e0000b003400580090008e
:10092000c80190000a017800ee8057000300010022
:10093000500498000000e000220032006808900097
:1009400000004500600c98008a8454004240a900d1
:10095000ebff3c00081090000028a3001b003200b1
:100960000b00e000190034008b04780009057800c2
:10097000e28f5400020036002a00200002003700f7
:100980000900e0000b00340058009000c8019000fe
:100990000a017800ec805700030001005004980021
:1009a0000000e000070032006808900000004500e9
:1009b000600c98008a8454004240a900030034006f
:1009c000eaff37000080eb00010037000000eb0079
:1009d0004f0678004f05be004f04be000080fa00ad
:1009e00000000600889fbe008a1f7800000478007f
:1009f00001027800824478000305780070c6b300d5
:100a0000804f510021003c0000c0e900804f5100a0
:100a1000df003d0072405000804f51004c01320019
:100a20000d003c006c405000804f51005f013c00c5
:100a300000c0e900804f5100d5003d0050c2b30016
:100a4000804f5100560132007c404000804f5100e1
:100a500056013a00ce00370010c6b300804f510057
:100a6000cb00320004003c0069405000804f510030
:100a70004e013a007200370030c6b300804f51007b
:100a8000180032000040e8000900370000c7b3003a
:100a9000804f51001f01320008003c0000c0e900f7
:100aa000804f5100e500320065003c006540500079
:100ab00080cf54003d013a000f00370050c7b3000b
:100ac000804f51005e00320063404000804f510073
:100ad0005b00320065405000804f510033013a0006
:100ae0001b0137009180e900010a7800780090002e
:100af00011f0790033013700a8609000c0c6b30040
:100b000080cf50000a003a009400780064805000c2
:100b1000000a78001000be004f89de00cf91de0091
:100b20000002be0002037800820378001300370041
:100b300010c7b30080cf500003003200a0c6b3003e
:100b400080cf500006003a00940078006880500082
:100b5000000a78003002be002003be000700370004
:100b60001480e900000a7800100078000002780084
:100b7000cfa2de000503780086037800049cbe0047
:100b80000694be00a860900080c6b30080cf5000dd
:100b90000e00320020c6b30080cf500005003a009e
:100ba0000400fb00cf80de000101780082017800a4
:100bb0000a00370040c7b30080cf50000300320066
:100bc0006640400080cf500006003a0004007800e4
:100bd000cf80de000101780082017800009cbe0019
:100be0000294be003800be002801be00e00f500095
:100bf000e08f5800e00f5900e08f590003003d00de
:100c000078009000d1c2b3000a00370008109000ad
:100c10000018a3000300320078009000b1c2b300b6
:100c2000040037000008a300540032007800900050
:100c300001c2b30001707d000000e8004e003700e3
:100c4000a8609000c0c6b30080cf500007003a00f3
:100c50009400780064805000000a78001002be0002
:100c60000003eb00860378001300370010c7b300c1
:100c700080cf500003003200a0c6b30080cf5000e8
:100c800006003a009400780068805000000a78005e
:100c90003002be002003be00070037001480e900c8
:100ca000000a78001000780000027800050020009b
:100cb0000600200007002000049cbe000694be0031
:100cc000a860900080c6b30080cf50000e003200b4
:100cd00020c6b30080cf500005003a000480fb001e
:100ce0000100200002002000030020000a0037005d
:100cf00040c7b30080cf5000030032006640400080
:100d000080cf500006003a00040078000100200067
:100d10000200200003002000009cbe000294be00e0
:100d2000081090000038a300140032003800be0004
:100d30002801be00e00f5000e08f5800e00f59007e
:100d4000e08f59000d00320080c7b30080cf5400ff
:100d50000300320080c5b30080cf540007003a0082
:100d60007800900001c3b30001707d008000e800ae
:100d700089707d000080e800700498007800900081
:100d80000000450060049800894078006d0037003d
:100d9000a8609000c0c4b30080cf500006003a00a5
:100da0009400780068805000000a78005001be006e
:100db0004000be00050037009400780064805000b9
:100dc000000a78001000be00db060700009cbe0091
:100dd0000294be00380090000000e00003003d00d7
:100de00078009000d1c2b3000a00370008109000cc
:100df0000018a3000300320078009000b1c2b300d5
:100e0000040037000008a3000500320078009000bd
:100e100001c2b30001707d000000e800700498007a
:100e20007800900000004500600498008940780038
:100e3000080078003201070064003700a8609000c5
:100e4000c0c6b30080cf5000250032000a003c002d
:100e50006440500080cf50002800320000c0e800fd
:100e600080cf5000140032006840500080cf500006
:100e700022003a000a00370040c7b30080cf50007c
:100e80001e0032006640400080cf50001b00320040
:100e90006940500080cf500018003a00060037002b
:100ea0001480e900000a780010007800485c900087
:100eb00008487800450037001480e900000a7800ef
:100ec0001002780068089000cf80de0001017800f1
:100ed00082017800009abe000292be003b003700fb
:100ee0001480e900000a780010017800680890007a
:100ef000cf80de000089be00340037001480e90096
:100f0000000a780010007800680c9000080878004b
:100f10002e0037001180e90080087800100078006a
:100f2000cf80de000101780082017800009cbe00c5
:100f30000294be0078009000000045006004980014
:100f400081c7b30008007800240007001f003700a5
:100f50001480e900000a780010007800600498000e
:100f6000580990000200e00002003d00d200070096
:100f7000090037008000eb00d600070080007800f1
:100f80000000e00003003200680090000080500084
:100f90000100370058089000100c98000b00370033
:100fa0007800900002707d00060037007800900005
:100fb000800045000904e00001003a0059c2b30076
:100fc000894878000000e800700498000000eb00f9
:100fd0004f0578004f04be0000000600ef02b0008d
:100fe000889fbe008a9fbe008c9fbe008e1f780027
:100ff0008006780000012000b0b79f0052962000c4
:10100000c2b79f0080c5b30080cf50000e003200f1
:1010100083002000b3b79f0044952000c4b79f0011
:101020007740400080cf50000700320000012000d0
:10103000b0b79f0080c7b30080cf500002003200dd
:10104000a2002000b2b79f003d04be002d05be00e7
:1010500040c6b30080cf500003003200654040001e
:1010600080cf50000b003a00e00f5400e08f5c008e
:10107000e00f5d00e08f5d0006003d006000b800fd
:101080006011b80008045000898458000a0559000e
:101090008b855900e00f5400e08f5c00e00f5d008d
:1010a000e08f5d0004003a005d0890008e01200092
:1010b0000000e0000c003200bfb19700030278008e
:1010c000cfa2de0005037800860378000800be008a
:1010d0000a01be00c00607004fb2970064407800c6
:1010e000d0df9f007e0120003fb097000002780013
:1010f000cfa2de0005037800860378000800be005a
:101100000a01be00ad06070023003700bfb09700fc
:1011100001047800cfc4de00090578008a05780054
:101120000802be000a03be007fa897008fb0970098
:101130001fb19700afb19700ab060700d0b79f0073
:10114000e1b79f00f2b79f0083bf9f000e07e90041
:1011500062fc2f000f014100020647000802be009a
:101160000a03be005fb09700efb097007fb1970011
:101170008fb99700180707007faa97000000520058
:10118000cfb0970060ce78005fb09700efb09700c7
:101190007fb197008fb99700809ebe008296be00f7
:1011a0003d00be002d01be00f0af9f0081b79f0043
:1011b00092b79f00a3b79f00e00f5000e08f580048
:1011c000e00f5900e08f5900020034000e00e000eb
:1011d000ceff3c00bfb09700e88f500010003a00ef
:1011e0000d1090000038a3000d003200f70f5700db
:1011f00006003e0062fc2f000f0141008200470004
:1012000000c3b300914f1000050032000e07e90043
:1012100000c3b30063fc2f008e81410080f17f008a
:1012200078011700920e98006d00900063fc2f006b
:101230008f8141008e80410052fc07001d09900003
:101240005d089000800f510006003d000200500034
:10125000800e98000d1090000040a10080169800ac
:101260000f0037000000e0000d003d000d10900061
:1012700074006000f00f500009003a007d089000f3
:10128000fd009000010050008d089000010050000a
:10129000020050004240a90001003400800e980076
:1012a0004f0778004f06be004f05be004f04be003a
:1012b000ef02b10000000600800078000100370056
:1012c0000000e8001004e000fdff3a0001005000bb
:1012d000000006000600370090cf100002003a0020
:1012e00000017800040037000000e8000201e90076
:1012f0000200e000f8ff3a0002007800000006005b
:101300000f04b000889fbe008a9fbe008c9fbe0065
:101310008e1f7800f0b79f0081f79f005001be003c
:101320004000be00b09f9f00c19f9f00d29f9f00c2
:10133000e39f9f0010c6b3000ff19700804f51004c
:101340001600320010c4b300804f51001300320069
:10135000ffb19700530890000000e00003003d003b
:1013600060002000d00998000c0037000000e00069
:101370000a003a0070c6b3000ff29700804f520087
:101380000300320070c4b300804f520003003a00e3
:1013900010002000ffb29700d00a9800ffb097001d
:1013a00040fb2f000f004000f30107008001780090
:1013b000e20f500015003a0030002000ffb0970007
:1013c0009008980010c6b3000ff19700804f5100ad
:1013d0000a00320064404000804f51000700320094
:1013e0000040e800804f510004003200c198200006
:1013f0000040e800804f510001003a0001992000b0
:10140000ffb1970063009000160037000000e00075
:1014100018003400300020007fb29700100a9800b6
:1014200010c6b3008ff2970080cf52000a0032003e
:101430006440400080cf5200070032000040e800c6
:1014400080cf520004003200419920000040e800a3
:1014500080cf520001003a00819920007fb19700af
:1014600062009000315878003158780011487800b7
:10147000bb01370014c6b3008ff2970084cf52002f
:101480000300320010c4b30080cf520013003a00b2
:101490007fb09700600190008200780000c3b30025
:1014a00080587800ffb29700e102980080c7b3002f
:1014b0008ff2970084cf52000100320080c5b30044
:1014c000804878000280e800ffb09700e0009800b4
:1014d000710090000080e800f00098000300e00038
:1014e00005003a00a39f9f00e4fb2f000f0142007c
:1014f0000307780095013700c5992000e5b79f00e4
:1015000010c6b3008ff0970080cf50000500320066
:1015100010c4b30080cf5000a0003a00d29a20003f
:10152000e2b79f00ffb19700530890001e02200011
:101530000000e000010035000007e8000e02e800ae
:10154000d4b79f006022b8006033b8003f9897007e
:10155000cf9897005f999700ef9997004c06070086
:10156000ffb097003102be002103be000000e00082
:1015700004003d000400be000601be0003f0a2000e
:10158000020037000400be000601be00b09f9f00ad
:10159000c19f9f00d29f9f00e39f9f002f999700bc
:1015a00064015100a29f9f0043fb2f008f814100e7
:1015b0006a8041000048eb006b824100c4b79f0085
:1015c00031003700c20120000300200065fb2f001e
:1015d0000f804200940107003f9c9700cf9c97002a
:1015e0005f9d9700ef9d97000800be000a01be00b6
:1015f0002c0607000006be005fb19700670151008e
:10160000d2b79f004240a9000a00340051060700eb
:101610000002be000203be000800be000a01be00b8
:101620004f060700b09f9f00c19f9f00d29f9f0061
:10163000e39f9f00cfb197006780410071002000b9
:10164000060037000000e9006f4866004c6add00c4
:101650004466de000c067200c4eede00e00f5600a9
:10166000e08f5e00040034008100e900f5ff3b00dc
:10167000010037000060eb008100e900fdff3b0046
:1016800067004000c0b79f00dfb297000500e00090
:10169000090034006022b8006033b8003f9897001a
:1016a000cf9897005f999700ef9997002e06070053
:1016b0000000e000c3ff3c00e0fb2f008f00400073
:1016c0004fb19700010051000000e9008e0f50005b
:1016d00001003d00000778000e00e00003003d001f
:1016e000f3fb2f000f81410025003700800f5700ca
:1016f00005003d000100470010409000f4c0b30019
:10170000e74f500001003c000042eb000e00780063
:10171000010037000e07e9000000e900f5fb2f008b
:101720000f814200800141009340780084cf500037
:10173000f8ff3200ef4f520001003a008149e80003
:101740000000e00006003d000e07e8002f9897001b
:1017500064004000a09f9f00e1fb2f000f8140002c
:101760008e01780004003700830041001100fb0067
:101770006fb29700e0487a008301e900faff3b006e
:10178000ffb29700550890000000e000ef003d0018
:101790000e00e900d00a9800ec0037003f9c97004b
:1017a000cf9c97005f9d9700ef9d97006022b80047
:1017b0006033b8000800be000a01be00b40507008f
:1017c0000000e00005003d000bf0a200b89f9f0064
:1017d000c99f9f00da9f9f00eb9f9f002f98970063
:1017e000725927000280b900026a28001300200005
:1017f000e2050700e4005000a19f9f0019003b0094
:10180000e3801000c0ff2f00008460000800ea00a1
:10181000a09f9f00c99020000f0037000808a30078
:101820000b0032003902be002903be003f9897002a
:10183000cf9897005f999700ef999700de05070012
:10184000b09f9f00c19f9f00d29f9f00e39f9f007a
:101850000884d100e88444000800e000efff3c0069
:101860001f0037000100e0001d003400c0ff2f0002
:1018700000806000a09f9f00000478006000b80016
:101880000200200003ff2300c9902000070037005a
:101890000808a300030032003902be002903be007d
:1018a000c50507000884d100e88444000800e00072
:1018b000f7ff3c000002be000203be003f98970005
:1018c000cf9897005f999700ef9997002f06070030
:1018d000b09f9f00c19f9f00d29f9f00e39f9f00ea
:1018e000ffb097005109900060c6b3008ff19700d8
:1018f00080cf5100040032006100200060c4b300ba
:1019000080cf510002003a002f9a9700ea0042006f
:1019100001074100f30f5700010034003e01200091
:1019200000c3b300e07f9f00f5fb2f008f824200d1
:10193000b5b79f002e0037000800be000a01be00a8
:10194000580507000006be00680757004240a9007e
:101950000e0034007f0507000002be000203be0037
:101960000800be000a01be007d0507006022b80025
:1019700046782d00771924008f050700b09f9f003f
:10198000c19f9f00d29f9f00e39f9f003fb09700a1
:10199000680440008900200008003700a2002000f1
:1019a000030020000c00be00180107000804e90035
:1019b00004c3b300044c41000006be00e00f560013
:1019c000e08f5e00060034008904e900f3ff3b006d
:1019d000030037000804e90000c3b300004c78009e
:1019e0008904e900fbff3b0068044400b8b79f008e
:1019f0000e00e0000b0034003f9c9700cf9c970046
:101a00005f9d9700ef9d97006022b8006033b8009b
:101a10000800be000a01be00530507000000e000f8
:101a2000c5ff3c0045fb2f008f8242006a804200c8
:101a3000bfb09700008050000002e9002f99970086
:101a400067014100a29f9f006b81420005003700a3
:101a50000402e900af9997008301e900a39f9f006a
:101a60000201e80000c3b300924f1000f8ff3200fb
:101a7000ffb29700d509900060c6b3008ff09700c1
:101a800080cf50000300320060c4b30080cf50000c
:101a900003003a00af9a97008500e8000a0037007b
:101aa00050c6b3008ff0970080cf50000500320081
:101ab0008000eb0050c4b3008ff2970080cf52003b
:101ac00001003a0011002000018741008e0f5200f2
:101ad00001003d00040778000e00e0001b00350007
:101ae000840f570005003d00ee40790095c3b30018
:101af00040c3b30080cf500001003c0005c3b300d9
:101b00008e007800010037000e07e9008100e9002f
:101b1000010241009441780085cf5100faff320064
:101b200090c3b30080cf520001003a00034ae8009e
:101b30000100e00005003d000201e9000e07e80099
:101b40002f9897000000e800a09f9f002f9a970011
:101b50008e0178008ff097007fb09700c5000700d6
:101b60004f0778004f06be004f05be004f04be0071
:101b70000f04b10000000600889fbe0080047800ba
:101b80006684400000ff2700180060004401de006a
:101b9000f07f2000800f51000e003a00800ceb0017
:101ba000180478006f0064001c003a0021009000c7
:101bb0000000e00019003a00110090000000e00071
:101bc00016003a00100020001100e000140032005e
:101bd000120037000200e00005003c000100780020
:101be000d3010700000178000000e00008003c007d
:101bf000f00028001800600001fe2300010c7000b6
:101c000020c02f00800c41000080eb000400370052
:101c1000800ceb000000eb000100370020002000ea
:101c20004f04be0000000600889fbe008a1f780097
:101c30008c9fbe00000478000206be00e60440004f
:101c4000190178000200d0004505de008a00780006
:101c5000f07f2000800f55000c003a006f006100fb
:101c600065003a00280090000000e00062003a00a1
:101c7000180090000000e0005f003a001000200013
:101c80001800e0005d0032005b0037000a00e00051
:101c900007003a0008007800a501070080007800de
:101ca0000000e000020034000a0078005300370012
:101cb0006108b9000c0140008d814800e07f2000e0
:101cc000800f5100e08f59000d0034001900e00032
:101cd00004003d006000b8000200200003ff2f0058
:101ce000030037006000b8000200200003ff270057
:101cf000009cbe000294be00100020003f00370090
:101d0000e00f5100e08f590005003400f00028007a
:101d100019006000c410dd00810c70003400370031
:101d20001900780001002800010360006f006000c6
:101d30000040a000800c780061015100e081590052
:101d4000c0fc2f00f1ff2f00800f5100818f590040
:101d50000d003d00860c78000000eb002004980088
:101d600010049800000c7800240037008880e800f8
:101d7000110c78006400440090087800190878007d
:101d8000800ceb0070014100f00f4100f7ff3400c0
:101d90008202ea00150032008881e8007082120099
:101da000980078008508de00130078000400dd004c
:101db000008c700064014400930078008508de0008
:101dc000120078000400dd00808970009200780025
:101dd0008508de00190078000400dd00008970002d
:101de000190078000500de00800c7800990c730063
:101df0000080eb0001003700200020004f06be00ed
:101e00004f0578004f04be00000006000800fa00ed
:101e1000889fbe008a9fbe008c9fbe00e0b79f00d7
:101e2000f1b79f000206be005404070080bf9f0068
:101e300091bf9f000001be000c00be002d050700f1
:101e40006fb19700ffb197000005510081855900df
:101e50000fbc97009fbc97000800be000a01be009f
:101e60004f06be004f05be004f04be000080fa00c2
:101e7000000006000a00fa00889fbe008a9fbe008c
:101e80008c9fbe00000478000145780002067800af
:101e900083047800840678000300e00002003c0020
:101ea000190020006c9c200060c6b300804f5500d4
:101eb0000e00320060c4b300804f55000b003200aa
:101ec00070c6b300804f55000300320070c4b300e9
:101ed000804f55009c003a00e48f4600800035009a
:101ee00058089000808f56007d003d008d05e80069
:101ef00060c6b300804f55001000320060c4b300cc
:101f0000804f55000d003200081090000038a300eb
:101f100004003a0058089000808f540001003d00f2
:101f2000590c9800580890000b005000500c980075
:101f300002003b000000eb00500c98000b00e0009a
:101f400027003c00180990006800900001c3b3000e
:101f5000017178008201e800130c98005808900085
:101f60000000e00003003c00081090000038a300cf
:101f70000500320068009000e1c2b3008171780072
:101f80000280e800100c9800d80890000b00ea00ce
:101f9000808f500001003d008105ea000b00ea003f
:101fa000200c980001804500500c9800890f5000cb
:101fb00001003d0080047800390c98006800900012
:101fc0009808900001004000090178008c0078001a
:101fd000ecf8070058089000090050001a0037007c
:101fe00098089000680090008b8f540018003d0006
:101ff00001004000090178008c007800e1f807003a
:102000001808900000814400120c980009805500c7
:10201000200c9800580890000000e00003003c00ed
:10202000081090000038a30006003200e80090007d
:10203000e0c2b30000f17800380890000000e8002a
:10204000300c980058089000400c9800a100370010
:10205000010040000b0178008c007800c9f80700ef
:102060001808900000814500120c98008b845400e1
:10207000580890000000e00003003c0008109000a9
:102080000038a3000500320068009000e1c2b300f0
:10209000017178000200e800100c980058089000c8
:1020a000890f500001003d00800478006800900016
:1020b00098089000010040008b004600090178005c
:1020c000b0f807001808900000804400100c980039
:1020d0005808900009005000200c98007d0037003f
:1020e00070c6b300804f55000300320070c4b300c7
:1020f000804f550014003a0058089000808f54001b
:1021000004003d00081090000038a30001003a00d0
:10211000590c9800580890000000e900500c9800f5
:1021200002003b000000eb00500c980070c6b300aa
:10213000804f550002003a005ac6b3000b0037002a
:102140005ac4b3000900370010c6b300804f5500d1
:1021500002003a000ac7b3000400370010c4b300fd
:10216000804f550001003a000ac5b30018099000dd
:10217000680090003c7178008201e800130c980020
:102180000c027800580890000000e00003003c00ba
:10219000081090000038a30017003200e8009000fb
:1021a000e0c2b30080f178008280e800110c980052
:1021b000580890000000e0000f0034008904e90096
:1021c000890f500001003d008004780068009000f5
:1021d00000804000090178008400780069f8070059
:1021e0001808900000804400100c980058089000d7
:1021f00009005000200c980068009000980890009a
:10220000010040000086e8000a587800800078004d
:102210000d00e00004003500b0c2b3008048780033
:102220008c04780004003700d0c2b30080487800e6
:102230008c0478008d06ea008005eb00070037006b
:10224000a10020000d007800850007007681550070
:1022500001f17f008b05e800800678000d00e000aa
:10226000f7ff3c00e18f55000e003c0050c6b30064
:10227000804f55000300320050c4b300804f55001a
:1022800003003a0000c3b300005e78008c047800bd
:102290000b00e00008003a0000c3b300805c780047
:1022a000070037008b05e900f680570001804500e4
:1022b00002c3b300905c41000b00e000f9ff3c005a
:1022c00068009000980890000100400000805400d1
:1022d000300c98000810900074006000f00f50005f
:1022e0000e003a007800900098089000010040002d
:1022f000a808900001004000b808900001004000cc
:10230000c80890008100400078089000808f50003d
:1023100002003d0001005000000c98004f06be0076
:102320004f05be004f04be000080fa00000006000a
:1023300000027800e6024000150078000100280045
:10234000810360006f006000800a780012003a008c
:10235000240090000000e0000f003a0014009000fc
:102360000000e0000c003a00160020001400e0001d
:102370003800320008003700e4004200910a78007b
:102380000480e8009008780014087800000aeb0048
:102390007003530001003700160020001500e00014
:1023a000f5ff320013003700640142008000400056
:1023b000120078004f00de00808a70008481e800ff
:1023c0009200780081804000130078004f00de000a
:1023d000008970009300780081804000140078002c
:1023e0004f00de008089700014007800000a400071
:1023f0000603e90015007800ef0f5000eaff3600f1
:10240000100037000481e8009400d1001200780029
:102410004f00dd00008a7000e40042009201d1000c
:10242000110078004f00dd00008971001101d1001a
:10243000150078004f00dd0080087100950ad1007a
:102440000603e80015007800ff0f5000edff3e0086
:10245000ef0a6000958a730006007800000006000d
:1024600001017800801f7800110009000200d800e7
:10247000800078004f0078000191b900820250007e
:10248000010278000400be0000000600889fbe0024
:102490008a9fbe00010578000100e00004003500bd
:1024a00008003c000000e00020003200050037007a
:1024b00060001000e080180002003b0001f02c00da
:1024c0001a0037000004be006011b8006b0920003c
:1024d0000982cf00020039000882cf000441b00019
:1024e000694252000e00320008003b0082817100f8
:1024f000610164008904d1000884d3008b05e800e1
:102500000442e800f9ff3a000500370008044400df
:1025100089844c008b05e9000442e900fbff3a0086
:10252000b20007000af0a70001f0a0004f05be00ae
:102530004f04be000000060003f0a200889fbe000a
:102540008a9fbe008c1f7800ce000700d5003300a4
:102550006450e1004f0032006420e100520032007c
:1025600003826c0007003b000905d0000306d00081
:10257000820f54000c065d00020039000200320098
:1025800089017800030678008582550004003d002b
:102590000003fd008103fd008502ea008b854200f7
:1025a000840f720002003b0060001000e080180001
:1025b0006011b8000005eb007a28e1000a0039003c
:1025c00006007800c75ddd00f707b2008780750060
:1025d0002d003700828171000a01780061056000da
:1025e0008180d1000080d3008502e900f9ff3b0023
:1025f000060440008784480002003b006004140089
:10260000e0841c000988a300070032008a81710061
:1026100082817100610164008904d1000884d300c3
:102620008b05e800170037000978a30013003a0073
:102630000b00e000130034008b05e900080444009f
:1026400089844c000a4474000978a3000d003a0004
:102650000b00e000070034008b05e900080444008b
:1026600089844c0001003a000b0020000978a30087
:10267000f7ff32000001eb00020037008281710099
:102680000a017800590007000cf0a70001f0a00033
:102690008d0037006420e10002003a00838f6c0057
:1026a0008d0033000801be000200be008600370026
:1026b000889fbe008a9fbe008c1f780071000700b3
:1026c0007800330003866c006450e100240032007f
:1026d0006420e100270032006150e1002200320056
:1026e0006120e100210032008b854200eb07b10040
:1026f0000134b800003ab8000804420089844a0056
:10270000013ab8000030b8008880400009014a0052
:1027100004003300000040008180480002014900ad
:102720008b05e900c909dd0083017000010032005a
:1027300013002000c814de004814dd004709de0045
:102740001200b200c808de000884700027000700ed
:1027500001f0a1000cf0a70001f0a0005a00370022
:102760006120e1005c0032000801be000200be00f2
:10277000f7ff37006150e100fcff3a0056003700d8
:102780000001be00570007000470a70003f0a1007d
:1027900003f8a30013003a006509b10010003200ed
:1027a000090035006928e100020035000100280019
:1027b0000000050000004000818048008502e9001b
:1027c000fcff3a0000000600f88f420005003500cb
:1027d0008100d1000080d3008502e800fcff3a00b0
:1027e000000006008000eb000000050081002000d2
:1027f000618055000b003d000b00200061fe2f00a2
:102800000100e1001d00340082817100610164005b
:102810008904d1000884d3000000e800faff3a00e0
:10282000710020006100640003007000020060007d
:102830000900320061044400e0844c000988a500ce
:10284000050032008b05e8006808e10002003a004c
:102850008904d1000884d300f20f20000258e1005f
:1028600005003d00c75ddd00f907b20089807500f5
:1028700008007800000006000bf827008b007800a5
:10288000000005000004be00160007000003be00a3
:102890000405be000200be0012000700844f750050
:1028a000000006000200be006450e1000500360092
:1028b0006420e100020036000968a30001003a002c
:1028c0000800be000160a0004f0678004f05be0062
:1028d0004f04be0000000600f0ff2f00f1ff2700ac
:1028e000f9ff3700c70ade00f107b200f50fb200aa
:1028f00008003200e1cf4200020032000170a00067
:1029000024000500810f700001003200040805005a
:1029100044000500810f700002003a001400050019
:102920008502e9000000400081c04800fcff3b0038
:102930000170a0002400050081037800e9ff070072
:102940000001be006000b8000478a30013003a0044
:102950006220e10015003e000d0039008301d10026
:102960000281d3008180d3008301d1000281d30092
:102970008180d3008301d1000281d3008180d30004
:102980000538b000c42add00f300b2008381720074
:1029900007f0a70003f0a00000000600f3ff2700e7
:1029a000f2ff2f006110b900fbff370003ff270083
:1029b000f7ff3700881f7800000478005001be0040
:1029c0004000be0004004000858048000601490028
:1029d00087814900009cbe000294be000400e10013
:1029e0000588e1000690e1000798e100020031004f
:1029f000680044001008e8004f047800000006005a
:102a00001000fa00889fbe008a9fbe003004be00fe
:102a10002005be00c8b79f00d9b79f00eab79f0046
:102a2000fbb79f000404540085845c0006055d002c
:102a300087855d0088bf9f0099bf9f00aabf9f0048
:102a4000bbbf9f000898be000a98be008000eb0044
:102a50004fb49700dfb497006fb59700ffb59700ac
:102a60000440e10005c8e10006d0e10007d8e1001c
:102a70000100310011002000108810004f05be0039
:102a80004f04be000080fa00000006001200fa00a9
:102a9000889fbe008a9fbe008c1f78000205be0082
:102aa0000004be00f4b79f0085bf9f0096bf9f0043
:102ab000a7bf9f000000eb00e0b79f00d0b79f00ca
:102ac000c0b79f00b0b79f00a0b79f000006780076
:102ad000dfb097006fb09700000140000000e000f9
:102ae0000a003d008c00070001003d00120020009c
:102af0009200070001003d0012002000970007002f
:102b00007c805700abff07000900370082000700f8
:102b100001003d00120020008800070001003d0078
:102b2000120020008d0007007c805700b4ff0700d2
:102b30006fb297000400e00007003500100020008d
:102b4000010020006011b800080470008984700042
:102b50000a0571008b8571000c06e800f003200067
:102b6000800f5600daff34000400e00006003d004c
:102b70007fb297008fba97001fbb9700afbb97003b
:102b80007c8057008bff07006fa897000000e000d3
:102b900004003a002fb49700bfb497004fb59700d8
:102ba000dfb59700890007004f0678004f05be008b
:102bb0004f04be000080fa0000000600881f780065
:102bc00018002000881f7800b0ff07008f87e900f9
:102bd0004f04780000000600801feb00abff0700e9
:102be0008f87e90000000600889fbe008a9fbe0014
:102bf0008c1f78006e00070005003d002f000700c5
:102c000007003d003d0007000006eb000400370010
:102c10003f00070002003d00300007001c002000bc
:102c20006a000700e5ff07000203be000002be00c5
:102c30000c00e00001003200280007000400be0084
:102c40000601be004f0678004f05be004f04be00cf
:102c500000000600889fbe008a9fbe008c1f78007f
:102c60005300070003003d001400070006003d006c
:102c7000040037002600070003003d006000b80094
:102c80006011b8001d00070050000700d2ff0700c8
:102c90000203be000002be000c00e0000100320092
:102ca0000e0007000400be000601be004f067800bb
:102cb0004f05be004f04be00000006006000b800d3
:102cc0006011b80008045000898458000a055900b2
:102cd0008b8559001c002000030037006000b800fd
:102ce0006011b80005003700e00f5200e08f5a0075
:102cf000e00f5b00e08f5b00000006000402500064
:102d00008582580006035900878359000000060099
:102d10000006eb00f4ff37004f08de0000007100f2
:102d2000c0b79f0001804000b0b79f000001eb00da
:102d3000afb097000100e000000006000200700044
:102d4000b0b79f0001804000a0b79f000001eb00da
:102d50009fb097000100e000000006000200700034
:102d6000a0b79f00018040000fb29700cf20de0087
:102d70000100700090b79f0004024200130007009a
:102d80004f18de000002720084b79f000804440060
:102d900089844c000a054d008b854d005fb2970079
:102da000efb297007fb397008fbb9700000006003b
:102db0000205be000004be00e00f5000e08f580086
:102dc000e00f5900e08f5900000006000800be0027
:102dd0000a01be0000000600889fbe008a9fbe0058
:102de0008c1f78000205be000004be000006eb0048
:102df000e00f5000e08f5800e00f5900e08f5900bd
:102e000007003d006000b8006011b80008045000e1
:102e1000898458000a0559008b8559001c00200040
:102e2000e00f5200e08f5a00e00f5b00e08f5b0084
:102e300002003d000f0007000c00a2000800be00c9
:102e40000a01be00310107000203be000002be00fd
:102e50000c00e00001003200060007000400be0084
:102e60000601be004f0678004f05be004f04be00ad
:102e7000000006006000b8006011b80004025000b5
:102e80008582580006035900878359000000060018
:102e90008f1fd1003f0107008f87e9000000e0008d
:102ea000000006001400fa00889fbe008a9fbe0042
:102eb0008c9fbe000004be000205be0068004700f3
:102ec0000a90be000890be005b0107000070a700da
:102ed0000bf0a100304320009e029000808252003f
:102ee000b0fe2f000028e10011003d00b0fc2f00d3
:102ef0000028e100150034001e0990008e089000a3
:102f00007e0090000501b0000201d1008180d30055
:102f10000080d3008502e800fbff3a000b00e000d0
:102f200080013b0060001000e08018007d01370048
:102f3000f0ff2f00f1ff27000b00e00079013b00bc
:102f40000100280000002000760137006000b80072
:102f5000740137004f89de00820178007601370066
:102f600007f0a200ab013700809feb0009010700ca
:102f70008f87e9000000e00000000600839f6800e2
:102f80000100e00002003d0060001000e080180039
:102f90000300e00002003d0060011100e081190023
:102fa000190207004f00e00002003b006000100023
:102fb000e0801800000006002800fa00889fbe008c
:102fc0008a9fbe008c9fbe0003866b0041010700f4
:102fd0000028a30064003a000128a30067003a001b
:102fe0000008a30062003a000108a30065003a004f
:102ff0001e009000be08900081064000ed3fb10029
:10300000f4805700ee019000111ab8008e0990006c
:10301000311bb8009e099000311cb800511db8004a
:10302000f485570046000700fe0190003a000700b3
:103030008b85e8003e0007008e09900040000700e5
:10304000ee019000340007008b85e800380007008f
:103050008e099000400007009e0990001b18b800e0
:10306000890440000a854800fe01900034000700f2
:103070008b85e80038000700ee0190003000070063
:103080008e0990001b18b800890440000a8548008a
:103090000a98a30008003a000402420085824a0010
:1030a00006034b0087834b0008044c0089844c00c6
:1030b0000a054d008d06e9008482720085027300c6
:1030c0004c3add008502720001003200150020003c
:1030d000443ade001400b2004538de00cb45dd0086
:1030e0000b007000c540de00cb4ddd008b80700012
:1030f0004549de00cb55dd000b017100c551de00f6
:103100000d037800d001070003f0a1000cf0a70028
:1031100003f0a000030137001b18b800850240002f
:1031200006834800e0834b0060044c000700370032
:103130001b18b8000603400087834800faff3700d9
:103140001b18b8008703400008844800e0844c0046
:1031500060054d00000006001b18b8000804400080
:1031600089844800faff37000108a300ea003a000a
:103170005800be005801be00e3ff37000008a3005e
:10318000e5003a0009047800f9ff37002800fa004a
:10319000889fbe008a9fbe008c9fbe0003866b0086
:1031a000cc0007006400e100440032006408e10044
:1031b0004a0032006100e100460032006108e1008f
:1031c00049003200ec0647006000b8003d02be0036
:1031d0003d03be00f48657006011b8003d04be00f8
:1031e0003d05be007d0320000b0037000000a0005d
:1031f0008d06e900130032000402420085824a0075
:1032000006034b0087834b0000004000818048008c
:1032100002014900838149000802520089825a0054
:103220000a035b008b835b00f0ff3b000802420057
:1032300089824a000a034b008b834b008d06e9000c
:10324000edff3a008482720086827200f707b200b6
:103250008782720001003200150020001e049000d9
:103260003e0b900006035400e63fb0000368a30045
:10327000070032000000a7000500a0008301d10074
:103280000281d3008180d3000080d3000603e800d0
:103290008301d1000281d3008180d3000080d3005c
:1032a0000002eb000482d2006701070003f0a100d6
:1032b0000cf0a70003f0a0009a003700640247005a
:1032c0006408e100940032003400be003401be0006
:1032d000f6ff37006108e1008f0032006011b8008e
:1032e0006000b800f1ff370003ff27000200200054
:1032f000fbff3700020ab900001bb9000200b8004a
:10330000810042008100430000000600889fbe004b
:103310008a9fbe008c9fbe000404b8000506b8005a
:103320008904460060854e000606b8000a0546007e
:10333000e0854e000706b8008b054600040eb80075
:10334000890446000a854e00e0854d00050eb80050
:103350000a0546008b854e00060eb8008b05460018
:103360000416b8000a0546008b854e000516b80005
:103370008b054600041eb8008b0546000800be0001
:103380000a01be004f06be004f05be004f04be003e
:1033900000000600889fbe008a9fbe008c9fbe0072
:1033a0000404be000605be00809fbe00829fbe00d2
:1033b00051010700040678000800be000a01be00a3
:1033c0004d010700840678004f03be004f02be0087
:1033d0008d4f76007fb0970013003300f0ff2f0071
:1033e0008b8f6b0006003b000d0666000c00a700eb
:1033f0000a00370007f0a600100020000a0037007e
:10340000880f5200898f5a008a0f5b008b8f5b00f8
:10341000030039001000200001003e0000002000e1
:1034200007f0a7000000ea004f06be004f05be00ef
:103430004f04be0000000600800078005002be006d
:103440005003be004439de00f700b200f37f2000d5
:1034500003016100090032000218e10016003a0081
:1034600085017200830173008381730000082000ce
:1034700015003a004000200013003700850172005b
:10348000830173008381730005003a0004a8be0025
:1034900006a8be00100020000b0037000201e90062
:1034a0000402420085824a0006034b0087834b00da
:1034b0000748a300f9ff32000740a00004a8be009f
:1034c00006a8be002000200080009800920098000e
:1034d00000000600680447000294be000094be008d
:1034e000fc0447008694be008494be000900780066
:1034f000d1ff070008007800cfff0700990078008f
:10350000814f70000b003b000800be000c0107005b
:103510004f00b10003003700f3ff2700f2ff2f0038
:103520006110b9004f06be004f05be004f04be003b
:103530000080fa0000000600889fbe008304780027
:103540000300e0002c00350003003c000082700006
:10355000040271002600320036432000c50020001e
:103560008383cf000a0039000541b1008283cf0078
:10357000070039000541b1008183cf000400390004
:103580000541b1008083cf00010039000541b10041
:1035900085c353006022b800120032000a003b00cd
:1035a00084827200610260008301d1000281d30035
:1035b0008180d3000080d3000603e8008743e80041
:1035c000f7ff3a0007003700000040008180480004
:1035d00002014900838149000603e9008743e900ad
:1035e000f9ff3a009800070009f0a70003f0a000d7
:1035f0004f04be000000060060001000e0801800cc
:1036000060011900e0811900d3ff3b00033e2c004c
:10361000f7ff37002800fa00889fbe008a9fbe008f
:103620008c9fbe0007067800878669000c003b006f
:10363000030478008704780008f0a10009f0a100d5
:10364000840f5000858f5800860f5900890f5c0049
:10365000030033000cf0a20001003a000cf0a100be
:103660009cff07006400e1005f0032007801470022
:103670006408e100610032006c0147007485570066
:103680003200be001201be003a04be001a05be00a0
:103690001e039000be0a90008503530006003d0003
:1036a0000004fd008104fd000205fd008305fd000e
:1036b0008703ea00050378000df8a3000400320038
:1036c00060041400e0841c0060051d00e0851d00fe
:1036d0006022b8007d0320000d38e1008006eb0079
:1036e0000b0039004433dd00f300b20083017300a6
:1036f00039003700848272000d027800e106640010
:103700008b85d1000a85d3008984d3000884d30037
:103710008703e900f7ff3b0008004000898048006c
:103720000a0149008b81490004003b006000100041
:10373000e080180060011900e08119000358a3001f
:10374000090032008d827200848272006102600082
:103750008301d1000281d3008180d3000080d30097
:103760000603e8001b0037000348a30017003a00d7
:103770000600e000170034000603e9000d00a30076
:10378000000048008180480002014900838149000f
:103790000348a3000f003a000600e00009003400cf
:1037a0000603e90000004000818048000201490052
:1037b0008381490001003a000003eb000348a300a5
:1037c000f5ff32006022b8000200370084827200e8
:1037d000618266001c00070003f0a1000cf0a70046
:1037e00003f0a0004fff3700640147006408e100c8
:1037f00002003a000df8a30047ff3a003200be0075
:103800001201be0047ff37006022b8000602200008
:103810000000d0008180d2000482d2008582d200d4
:103820000000a0000202520083825a0003003b0005
:103830000202420083824a000000a1000603e90060
:10384000f3ff3a0000000600180020005700200097
:10385000080453000d003d000600200097fc2f00d7
:103860000740e1001e0034008482720061026000a3
:103870008301d1000281d3008180d3000080d30076
:103880000804e800f8ff3a004700200061046000e7
:1038900005047400040464000d003200610040005f
:1038a000e080480060014900e081490003b8a500bc
:1038b000070032000603e8006538e10004003a0022
:1038c0008301d1000281d3008180d3000080d30026
:1038d000f87f20000830e10003003500080378007d
:1038e0006000b8006011b8004433dd00f300b2009e
:1038f000830173000000060005ff270005826100b8
:10390000070032000428e100010032002400050015
:103910000600070001003a00440005000408050005
:1039200002000700f9ff3a00140005006f826100f1
:10393000810270008502710085027200000006009d
:10394000e48240001078a3000700320064024000c7
:103950001178a3003400be001401be000400320040
:103960000330a700000006003500be001501be00b0
:103970000330a00000000600a022a90000000600fd
:103980000080fb00000040000128200060807800db
:103990000000060030158800000006008560a900c0
:1039a000e7416000c419dd009109200091407800d2
:1039b000f2c8b30082c0600083c070008000fd00c8
:1039c00099e0b7008000fd00680060004300de0061
:1039d0004300dd00d1082000914078000134a100af
:1039e00080c07000010078008de0b7000000060084
:1039f0004315880054158800221588001115880089
:103a0000001588000000d1006140600000404000c7
:103a1000012a2000914078000114a10080c07000ac
:103a200001007800a0e2b700000006000200fa00e2
:103a3000000f78001e0078004200dd000080fa00d0
:103a4000000006000800fa00300798000000eb00b4
:103a5000100798000040eb00004f78000040eb009a
:103a600040479800210037004e4090000080fb0046
:103a700000004000800078003e0090000080400080
:103a80009e009000010878009e009000f027200022
:103a9000808f50000300360010c0b300004f780044
:103aa000050037001e0090000000e00002003a0010
:103ab0000040eb00004f78001e04e00004003a00d4
:103ac0001e0090000002b0001007980004003700ac
:103ad0001e00900001fe2f0001004000100798001a
:103ae0004e4090000040e80040479800ce409000d3
:103af00070c2b30080cf5000dbff36000080fa00b8
:103b0000000006000a00fa0020079800310798001c
:103b1000024f98000000eb00000f78000040eb001f
:103b2000204798000d0037002e4090000080fb00d9
:103b300000004000800078002e00900000804000cf
:103b40001e0878000e4890000080fb001e0f400009
:103b50002e4090000040e800204798003e00900072
:103b60009e0f1000f0ff36000080fa0000000600f3
:103b70000800fa00000f780011079800220798004b
:103b8000330798001e007800204090000080fb0062
:103b900000004000800078002e009000008040006f
:103ba000900078001e007800010878001e00780060
:103bb000204090008040e8001e00780021409800de
:103bc0001e00780020409000f44f500003003600a3
:103bd0009e0078000040eb00a04098001e00780096
:103be0004000900000004000800078001e0090001f
:103bf00000804000900078001e00780030009000a7
:103c00000088b90042062000110009000200d80017
:103c10000014b000800078001e0078002100980099
:103c20001e007800400090008000e8001e00780030
:103c3000410098001e007800c0009000f07c200039
:103c4000808f5000060036001e0078008000eb00d8
:103c5000410098001e007800be00900031009800de
:103c60001e007800a00090001e0078001000780070
:103c7000808f500002003900dc02a80001003700ec
:103c8000dc02a9001e007800600090008000e800bf
:103c90001e007800610098001e007800e00090008f
:103ca000f07c2000808f5000030036009e007800da
:103cb0000000eb00e00098000080fa000000060021
:103cc0000600fa00200798000000eb00100798009b
:103cd0000a0037000000eb00000f780001003700f9
:103ce0001e0fe800f03220009e0f1000fcff36008f
:103cf0001e0090000000e800100798009e00900051
:103d00002e009000808f5000f2ff39000080fa00f2
:103d1000000006000400fa00008fbe000400370017
:103d20000080eb008080eb001e0f40005e97480093
:103d30001e00be00e00f5000e08f5800f8ff3a0070
:103d40000080fa00000006000200fa000000eb000c
:103d5000000f7800010037001e0fe800100120005e
:103d60009e0f1000fcff34000080fa0000000600e7
:103d70000200fa000000eb00000f7800010037009d
:103d80001e0fe800707020009e0f1000fcff360030
:103d90000080fa00000006000200fa00004f7800e0
:103da000e202a900dc42a900dc62a8009e80fb00c0
:103db00000022000008060004580de00614060005d
:103dc000614060004401dd00c12d20009140780079
:103dd000f0ceb30000c0600002407000dce2b7002b
:103de0001e80fb00700060004480de0061406000c7
:103df000614060004501dd00c12d20009140780048
:103e0000f0cdb30000c0600002407000dce2b700fb
:103e1000e222a800ccff0700e222a900d4ff07009d
:103e2000e202a9001e80fb00680060004380de0003
:103e300061406000614060004201dd00c12d200052
:103e400091407800b0cfb30000c060000240700025
:103e5000dce2b7001e80fb00640060004280de00f0
:103e600061406000614060004301dd00c12d200021
:103e70009140780070cfb30000c060000240700035
:103e8000dce2b7001e80fb00620060000080d10011
:103e900061406000614060004401dd00c12d2000f0
:103ea00091407800f0ceb30000c060000240700086
:103eb000dce2b7009e40780061c0600061406000b5
:103ec00061406000614060004501dd00c12d2000bf
:103ed00091407800f0cdb30000c060000240700057
:103ee000dce2b700e222a80097ff0700e222a90067
:103ef0009fff07000080fa00000006000200fa00a1
:103f0000004f7800e202a900dc42a8009e80fb007e
:103f100000042000008060004680de0061406000f8
:103f2000614060004301dd00c12d20009140780018
:103f300070cfb30000c0600002407000dce2b70048
:103f40009e80fb0000022000008060004580de00b3
:103f500061406000614060004401dd00c12d20002f
:103f600091407800f0ceb30000c0600002407000c5
:103f7000dce2b7001e80fb00700060004480de00c1
:103f800061406000614060004501dd00c12d2000fe
:103f900091407800f0cdb30000c060000240700096
:103fa000dce2b700e222a80067ff0700e222a900d6
:103fb0006fff0700e202a9001e80fb00680060009e
:103fc0004380de0061406000614060004201dd002e
:103fd000c12d200091407800b0cfb30000c0600038
:103fe00002407000dce2b7001e80fb00640060004d
:103ff0004280de0061406000614060004301dd00fe
:10400000c12d20009140780070cfb30000c0600047
:1040100002407000dce2b7001e80fb00620060001e
:104020000080d10061406000614060004401dd001b
:10403000c12d200091407800f0ceb30000c0600098
:1040400002407000dce2b7009e40780061c0600072
:104050006140600061406000614060004501dd003a
:10406000c12d200091407800f0cdb30000c0600069
:1040700002407000dce2b700e222a80032ff070035
:10408000e222a9003aff07000080fa0000000600c3
:104090000200fa00004f7800e202a9009e80fb00b7
:1040a00000082000008060004780de006140600062
:1040b000614060004201dd00c12d20009140780088
:1040c000b0cfb30000c0600002407000dce2b70077
:1040d0009e80fb0000042000008060004680de001f
:1040e00061406000614060004301dd00c12d20009f
:1040f0009140780070cfb30000c0600002407000b3
:10410000dce2b7009e80fb0000022000008060001f
:104110004580de0061406000614060004401dd00d8
:10412000c12d200091407800f0ceb30000c06000a7
:1041300002407000dce2b7001e80fb0070006000ef
:104140004480de0061406000614060004501dd00a8
:10415000c12d200091407800f0cdb30000c0600078
:1041600002407000dce2b700e222a800f6fe070081
:10417000e222a900fefe0700e202a9001e80fb0069
:10418000680060004380de006140600061406000c4
:104190004201dd00c12d200091407800b0cfb30076
:1041a00000c0600002407000dce2b7001e80fb002f
:1041b000640060004280de00614060006140600099
:1041c0004301dd00c12d20009140780070cfb30085
:1041d00000c0600002407000dce2b7001e80fb00ff
:1041e000620060000080d1006140600061406000ba
:1041f0004401dd00c12d200091407800f0ceb300d5
:1042000000c0600002407000dce2b7009e40780011
:1042100061c060006140600061406000614060001a
:104220004501dd00c12d200091407800f0cdb300a4
:1042300000c0600002407000dce2b700e222a8008b
:10424000c1fe0700e222a900c9fe070000352c00cc
:1042500001002000affe07000080fa000000060009
:104260000200fa00004f7800e202a8009e80fb00e6
:1042700000082000008060004780de006140600090
:10428000614060004201dd00c12d200091407800b6
:10429000b0cfb30000c0600002407000dce2b700a5
:1042a0009e80fb0000042000008060004680de004d
:1042b00061406000614060004301dd00c12d2000cd
:1042c0009140780070cfb30000c0600002407000e1
:1042d000dce2b7009e80fb0000022000008060004e
:1042e0004580de0061406000614060004401dd0007
:1042f000c12d200091407800f0ceb30000c06000d6
:1043000002407000dce2b7001e80fb00700060001d
:104310004480de0061406000614060004501dd00d6
:10432000c12d200091407800f0cdb30000c06000a6
:1043300002407000dce2b700e222a80082fe070023
:10434000e222a9008afe0700e202a8001e80fb000c
:10435000680060004380de006140600061406000f2
:104360004201dd00c12d200091407800b0cfb300a4
:1043700000c0600002407000dce2b7001e80fb005d
:10438000640060004280de006140600061406000c7
:104390004301dd00c12d20009140780070cfb300b3
:1043a00000c0600002407000dce2b7001e80fb002d
:1043b000620060000080d1006140600061406000e8
:1043c0004401dd00c12d200091407800f0ceb30003
:1043d00000c0600002407000dce2b7009e40780040
:1043e00061c0600061406000614060006140600049
:1043f0004501dd00c12d200091407800f0cdb300d3
:1044000000c0600002407000dce2b700e222a800b9
:104410004dfe0700e222a90055fe07000080fa00c9
:10442000000006000000fa00d8a2a900d882a90066
:10443000d862a900d842a900de22a900de02a900a4
:10444000e202a900e222a90000122a007100200065
:1044500030fe070030c3b3000dff070020c3b300d8
:104460000bff070080c2b30009ff0700c0c0b30004
:1044700007ff070060c0b30005ff070010c0b300ce
:1044800003ff07000080fa00000006000200fa00a7
:10449000000f7800040037001e00780010407800fc
:1044a0006fff07001e0fe8001e0078001040780024
:1044b0000004e000f8ff3a000080fa000000060067
:1044c0000a00fa00400798004e009000801f780014
:1044d00080002b00801f78000e00780098ef070006
:1044e000e48757000e007800e8ff07000080fa001c
:1044f000000006000600fa0020079800ae009000b9
:104500000e00780080ef07000e007800dfff070044
:104510000080fa00000006000c00fa004007980036
:10452000510798005e009000801f78004e009000b8
:10453000801f78000e00780081ef0700e4875700a5
:104540000e007800d1ff07000080fa00000006008e
:104550000000fa00b3ff070080c0b30067fe070049
:10456000c0002b00c9ff070080c4b30063fe070032
:10457000c0002b00c5ff07000080fa000000060005
:104580000400fa00881f7800100798000040eb0034
:10459000004f7800a022a800f7fc07000040eb00c5
:1045a000004f7800090037001e80fb00000040002b
:1045b000800078001e009000008440001e407800bb
:1045c000effc0700000c78001e4fe80010c0b3009d
:1045d0009e4f1000f4ff36004f0478000080fa0070
:1045e000000006000200fa00000f78001e007800ac
:1045f000e0448800e04480000000e000fdff3a0055
:104600000080fa00000006000200fa00000f7800a7
:104610001e0078001f050700100888000080fa00bf
:10462000000006000200fa00000f78001e0078006b
:10463000b2002000110009000280d800d044880098
:104640000080fa00000006000600fa00000f780063
:1046500011079800220798002e0090009e0f50002e
:1046600003003c001e007800200798000600370079
:10467000ae0090001e009000808f500002003500b8
:104680001e009000200798002e0090000080fa0085
:10469000000006000200fa00000f780000c02f00a2
:1046a00080007800f0072000020120000e060700bd
:1046b00000c02f0000017800f00720008000780083
:1046c000030120001e0078002b0607000080fa007e
:1046d000000006000200fa00000f780000c02f0062
:1046e00080007800f0072000030120001e01780000
:1046f000f00507000080fa00000006002400fa0020
:1047000000679800111798000e007800f1ff07006d
:104710000e6090000080fb00000040000e00400092
:104720009e109000010878000e007800d9ff070065
:104730000080fa00000006000200fa00dcc8bf009a
:104740000004e000050032000040eb00ebfd070034
:1047500060fb2b0067ff0700040037000040eb0000
:10476000e6fd070080fb2b0062ff070009c9bf00c0
:10477000e24f50001700360008c9bf000004e000f7
:104780000500320010c0b300dcfd0700a0fb2b00c9
:1047900058ff07000400370010c0b300d7fd070022
:1047a000c0fb2b0053ff070008c9bf008040eb008f
:1047b000014f78000004e00002003a0010c0b3008e
:1047c000004f78001e40780008e9b7000040eb0079
:1047d00009e9b70009c9bf000040e80009e9b700ce
:1047e0000080fa00000006000600fa00881f78002a
:1047f000000f780080fd2f001e0440006140b900ca
:1048000022f7070010079800210798000800e00031
:1048100007003d0002002000037824001e009000e5
:10482000ae00900045f70700100798002107980098
:10483000a299290093092c001e009000ae00900060
:104840009bf7070002002000e33b24003bf7070032
:10485000cbf70700100888004f0478000080fa00aa
:10486000000006002000fa00881f7800f0002000f9
:1048700090168800e0072000301688000000eb004a
:10488000c01688000000eb00f01688003603070011
:1048900021030700ed020700df0207003f030700c6
:1048a000214d2000e0fb2b0065030700ddfe070023
:1048b00027ff0700c086200086ff0700a043800076
:1048c000e40f50001b003a000000eb00604188003c
:1048d000090037006041800080004000808e200089
:1048e000808040000000eb0080087800604180007c
:1048f0000000e8006041880060418000e30f500044
:10490000f4ff36008002200040478800a00020000d
:10491000504788000000eb00604788000000eb0073
:10492000704788001000200080478800808e20009b
:1049300058ff0700c086200066ff0700a0438000e4
:10494000e10f50001a003a000000eb0060418800bf
:104950000d0037006241800060418000800040000f
:10496000c086200000804000900178008200410055
:10497000808e2000008040000308780060418000a5
:104980000000e8006041880060418000e40f5000b2
:10499000f0ff36000040eb0058fd070040fc2b0004
:1049a000c7fe070080bb2000880207000600370012
:1049b0000040eb0051fd0700d0fc2b00c0fe0700bb
:1049c00080bb200081020700e1fe0700c0862000b6
:1049d00040ff070060438000a046880070438000cd
:1049e000b046880080438000d3e8b7009043800041
:1049f000dae8b70002c2b3000128200000802000de
:104a000040fc070010c0b300aa020700a1468000c6
:104a100080fd2f00008440006140b9009bf6070034
:104a2000600f9800710f98000800e00007003d003b
:104a300002002000037824006e089000fe08900019
:104a4000bef60700600f9800710f9800a299290028
:104a500093092c006e089000fe08900014f70700e0
:104a600002002000e33b2400b4f6070044f70700ef
:104a700010088800b0468000d0448800c862a900b1
:104a80000040eb00dbe8b700d4c2bf006440600028
:104a90000004e0000a003a00d3c8bf000004e000b0
:104aa00007003a00d4c2bf00644060000004e00088
:104ab000fcff3200d2c8bf000040e800d2e8b700d7
:104ac000d2c8bf00e44f5000020036000040eb00a7
:104ad000d2e8b70018ff0700d3c8bf000004e00009
:104ae0001e003200d4c2bf00644060000004e00039
:104af00008003200d4c2bf00614060000004e00042
:104b000004003200d4c2bf00624060000004e00034
:104b100012003a000000eb006041880007003700f7
:104b200000c4b300f5fc070060fd2b0064fe070025
:104b3000604180000000e800604188006141800021
:104b4000800c2000808f5000f5ff360000c4b300b9
:104b5000eafc0700d0fd2b0059fe0700dac8bf00b1
:104b60000004e00048003200e08d200084fe0700d1
:104b7000dbc8bf008080fb00c8c2bf000080fb0014
:104b80004300de00614060000080fb00808f500029
:104b90002d00320000c4b300d8fc0700e0fd2b005c
:104ba00047fe0700401f200008020700c8c2bf00e0
:104bb000684060000004e0001000320000c4b30050
:104bc000cefc070020fe2b003dfe0700f0468000d3
:104bd000b2002000110009000280d800b046880011
:104be000b0468000d0448800e903070000c4b30049
:104bf000c2fc0700a0fe2b0031fe0700c8c2bf00a8
:104c0000684060000004e00009003a0000c4b300fe
:104c1000bafc070020ff2b0029fe0700f70307005e
:104c200000c4b300b5fc0700a0ff2b0024fe070062
:104c3000803e2000e501070000c4b300affc070080
:104c4000d0fd2b001efe0700c8c2bf0068406000f8
:104c50000004e0000a00320010c0b300dce8b70036
:104c6000f0468000b2002000110009000280d80048
:104c7000b0468800b0468000d0448800020037006b
:104c80000040eb00dce8b700c8c2bf000080fb00ba
:104c90004300de0061406000dbe8b700d2c8bf001f
:104ca0000080fb00500f98005e089000e20f50005b
:104cb000b5003200de089000e28f500007003c0093
:104cc0005e0890000000e0000b003200de0890005b
:104cd000e18f50004b003200b90137005e089000b0
:104ce000e30f5000fb003200de089000e48f50001c
:104cf00056013200b201370040c0b3007ffc07000c
:104d000020002c00fbfd0700d4c2bf0068406000fb
:104d10000004e000aa013a000000eb0060418800b6
:104d20002f00370000c4b30074fc070070002c0093
:104d3000e3fd0700c8c2bf000044b2000004e00069
:104d400024003200d3c8bf008040eb00015f980010
:104d50000004e00002003a0010c0b300005f9800b9
:104d60000e589000d3e8b700d3c8bf000004e0009d
:104d7000080032001100200020c0b3005ffe0700d1
:104d800000c4b3005dfc070060fd2b00ccfd0700f4
:104d9000070037008000eb0020c0b30057fe07007b
:104da00000c4b30055fc0700e0002c00c4fd070060
:104db000c8c2bf000044b2000004e000fcff3a009b
:104dc000803e2000810107000040eb00d2e8b700e0
:104dd00007003700604180000000e8006041880063
:104de00061418000800c2000808f5000cdff360094
:104df00000c4b30041fc0700d0fd2b00b0fd07004c
:104e00006f01370040c0b3003cfc070050012c008c
:104e1000b8fd0700d4c2bf00684060000004e00095
:104e200067013a00d3c8bf000004e00064013a0003
:104e30002003200065010700d4c2bf006840600065
:104e40000004e000fcff32000000eb0030098800a5
:104e5000a0468000300988000040eb00d8e8b70089
:104e600000c4b30025fc0700a0012c0094fd07003e
:104e7000350037003009800000017800010520006e
:104e800080022000f0fd0700300988003009800012
:104e9000a0468800d8c8bf008080fb00a0468000e4
:104ea000808f50001e003200a146800080fd2f0040
:104eb000008440006140b90074f50700200f98009d
:104ec000310f98000800e00007003d0002002000bc
:104ed000037824002e089000be08900097f5070084
:104ee000200f9800310f9800a299290093092c00f7
:104ef0002e089000be089000edf50700020020008b
:104f0000e33b24008df507001df60700100888001c
:104f1000a046800040478800808e2000ddfd07000d
:104f2000a0468000d8e8b70003fe070000c4b30025
:104f3000f2fb0700a146800010022c0076fd07005e
:104f40002003200021010700d4c2bf00644060009c
:104f50000004e000c7ff3a00d4c2bf006440600014
:104f60000004e000fcff3200d2c8bf000040e800af
:104f7000d2e8b70000c4b300e0fb0700d0fd2b006f
:104f80004ffd07000e01370040c0b300dbfb0700f8
:104f9000a0022c0057fd0700d4c2bf00684060008b
:104fa0000004e00006013a00d3c8bf000004e0009e
:104fb00003013a002003200004010700d4c2bf000f
:104fc000684060000004e000fcff32000000eb00dd
:104fd00030098800b0468000300988000040eb00ae
:104fe000d8e8b70000c4b300c4fb0700a0012c0040
:104ff00033fd0700270037003009800000017800ea
:1050000041062000100020008ffd070030098800b5
:1050100030098000b0468800d8c8bf008080fb00ff
:10502000b0468000808f5000100032000200370030
:1050300020032000e5000700d9c8bf000004e000fd
:10504000fbff3a00b0468000d044880020032000d7
:10505000de000700b046800050478800808e2000a8
:105060008cfd070020032000d8000700b046800018
:10507000d8e8b700b0fd070000c4b3009ffb0700ed
:10508000b146800010022c0023fd07002003200001
:10509000ce000700d4c2bf00644060000004e000fe
:1050a000d5ff3a00d4c2bf00644060000004e000b5
:1050b000fcff3200d2c8bf000040e800d2e8b700d1
:1050c00000c4b3008dfb0700d0fd2b00fcfc0700e3
:1050d000bb00370040c0b30088fb0700f0022c0083
:1050e00004fd0700d4c2bf00684060000004e00077
:1050f000b3003a00d3c8bf000004e000b0003a009b
:1051000020032000b1000700d4c2bf006840600047
:105110000004e000fcff32000000eb0030098800d2
:10512000dac8bf000080fb00300988000040eb00b7
:10513000d8e8b70000c4b30070fb0700a0012c0042
:10514000dffc0700310037003009800000017800e3
:10515000110020000000eb003bfd07003009880033
:1051600030098000dae8b700dac8bf000080fb0031
:10517000100f98009e0890000100e0000c00320023
:105180001e089000e10f5000010032000f003700b0
:1051900040032c00801f780080002b00801f7800c7
:1051a0000e00780066ec0700e48757000700370020
:1051b000b0032c00801f780080002b00801f780037
:1051c0000e0078005eec0700e487570000c4b300cf
:1051d0004afb07000e007800acfc0700a18d200000
:1051e00091407800d8c8bf0080cf50000500320041
:1051f000dac8bf000080fb0070478800808e200066
:1052000024fd0700dac8bf00d8e8b700d4c2bf0049
:10521000644060000004e000cbff3a00d4c2bf004d
:10522000644060000004e000fcff3200d2c8bf0010
:105230000040e800d2e8b70000c4b3002ffb07002d
:10524000d0fd2b009efc07005d00370040c0b3007e
:105250002afb070030042c00a6fc0700d4c2bf00c4
:10526000684060000004e00055003a00d3c8bf0069
:105270000004e00052003a00200320005300070021
:10528000d4c2bf00684060000004e000fcff3200b0
:105290000000eb003009880000c4b30017fb0700d2
:1052a000a0012c0086fc0700360037003009800082
:1052b00000017800210020000000eb00e2fc070064
:1052c00030098800e08d2000adfc07003109800026
:1052d000010f98000e089000e10f500010003200fe
:1052e0008e089000e18f5000040039000e089000f5
:1052f000e20f5000130032001e003700f04680001d
:10530000e8004700801f780080042c00801f780090
:10531000010078000aec0700e48757001500370009
:1053200000478000e8004700801f780000052c003f
:10533000801f78000100780001ec0700e487570027
:105340000c003700c8c2bf000080fb004300de0035
:10535000614060000080fb00e8004700801f78008b
:1053600080052c00801f780001007800f4eb070016
:10537000e487570000c4b300e0fa07006800470064
:1053800042fc0700d4c2bf00644060000004e0009b
:10539000c6ff3a00d4c2bf00644060000004e000d1
:1053a000fcff3200d2c8bf000040e800d2e8b700de
:1053b00000c4b300d1fa0700d0fd2b0040fc070069
:1053c0002003200001000700affd37000400fa00b1
:1053d00010079800080037000000eb00000f78006d
:1053e00002003700000000001e0fe8007057200088
:1053f0009e0f1000fbff36001e0090000000e90029
:10540000100798001e009000e10f4000f2ff3a00e4
:105410000080fa00000006000000fa0031122000af
:105420009140780080cfb30000c060005040b300ce
:1054300023e1b7000000eb00300988000080eb009a
:10544000400988000080fa00000006000c00fa0005
:10545000a1e2a90000fe2f00500798005e00900016
:105460004cf9070070ff2f004cf9070090ff2f0048
:105470004007980060f02f003007980030542e004d
:1054800020079800c0cf20001007980070c12d00a1
:10549000000f78003e029000ce0190002e01900097
:1054a0009e0090001e00780051f907000080fa006d
:1054b000000006000200fa00004f7800800b200078
:1054c000100888004110200091407800f0ccb30013
:1054d00000c0600004e1b7008460a8008c60a800f0
:1054e000510920009140780000c7b30000c070004f
:1054f00095e0b7009e40780061c06000c700dd0005
:1055000005c1bf000074a1000140700005e1b700b3
:105510000080fa00000006000000fa0011e1a90076
:1055200020072000600888000111200091407800c9
:1055300000c3b30000c0700010e1b70084c0a80031
:105540008cc0a800710920009140780080cfb30082
:1055500000c060000024a00097e0b70011e1a8009f
:105560000080fa00000006000000fa000000eb00d6
:1055700010048800d202a8008220a8008600a9009a
:105580008e00a800d222a8008220a80086e0a900f0
:105590008ee0a8000080fa00000006000000fa007b
:1055a00010062000a0108800c12020009140780043
:1055b00090cfb30000c060000ce2b7000c02a9005d
:1055c0000cc2a9000d42a8000de2a8000ca2a9007f
:1055d0000f62a9000f42a8008520a9008d20a90014
:1055e0008109200091407800f0c8b30000c060003d
:1055f00001c6b3000140700098e0b7000ec2bf00c2
:10560000f043b20001c4b300014070000ee2b700e5
:105610000080fa00000006000200fa00004f780047
:105620000fc2bf00624060000004e000fcff3a00cf
:105630001e80fb00801088000080fa000000060039
:105640000a00fa0030079800410798004e009000c9
:10565000823e2000110009000280d80080407800be
:105660000e00e800014878004e009000823e2000c5
:10567000110009000280d8008000fd0042062000d1
:10568000110009000280d800804078000e00e80078
:10569000114098004e0090004206200011000900c1
:1056a0000280d8008000fd00a20020001100090047
:1056b0000280d800804078000e00e8002140980069
:1056c0004e009000a2002000110009000280d800c6
:1056d0008000fd00804078000e00e8003140980016
:1056e0000040eb00004f7800070037001e80fb00f1
:1056f000800078003e00900000804000104078005c
:10570000c5ff07001e4fe8001e80fb0080007800e8
:105710003e00900000804000104078000004e0004f
:10572000f2ff3a00a0c3b300bbff07000040eb004c
:10573000004f7800060037009e80fb000e00e80056
:10574000614078000043b000b3ff07001e4fe8003f
:1057500030c0b3009e4f1000f7ff3600a0c0b3006a
:10576000adff0700d0c0b300abff07000080fa0018
:10577000000006000400fa00100798000040eb004b
:10578000004f7800070037001e80fb008000780083
:105790001e00900000804000104078009eff07002f
:1057a0001e4fe8001e80fb00800078001e00900065
:1057b00000804000104078000004e000f2ff3a0052
:1057c000a0c0b30094ff0700d0c0b30092ff070051
:1057d0000080fa00000006000400fa00100798009c
:1057e0000040eb00004f7800070037001e80fb00f0
:1057f000800078001e00900000804000104078007b
:1058000085ff07001e4fe8001e80fb008000780027
:105810001e00900000804000104078000004e0006e
:10582000f2ff3a000080fa00000006000800fa00cb
:1058300040479800310798003e009000823e2000cb
:10584000110009000280d800004f78003e0090004f
:10585000823e2000110009000280d8008000fd0077
:1058600042062000110009000280d800104798006d
:105870003e00900042062000110009000280d8007e
:105880008000fd00a2002000110009000280d80065
:10589000204798003e009000a2002000110009005f
:1058a0000280d8008000fd00304798004e409000f4
:1058b00059ff0700a0c3b30057ff07001e40780040
:1058c0000043b00054ff07001e4090000043b000aa
:1058d00051ff07002e4090000043b0004eff07002c
:1058e0003e4090000043b0004bff0700d0c0b30023
:1058f00049ff0700a0c0b30047ff07000080fa007f
:10590000000006000400fa00100798000000eb00f9
:10591000000f78001e009000104078008080fb008f
:1059200000fd2f0080804000803e20000088b900ec
:10593000000f78001e0090000000e8001040780082
:105940008080fb00400620000088b9009e004000d7
:1059500000d42e00008f40001e0090000080e80060
:10596000104078000080fb006a00b9009e004000f3
:1059700000e22f00008f40001e00900063004000f6
:10598000104078000080fb009e00400000fd2f00ca
:10599000008f40001e0078000080fa000000060022
:1059a0000800fa0020079800310798000040eb003b
:1059b000204798000040eb00204798001200370075
:1059c0002e4090000080fb00000040008000780026
:1059d0002e009000008140002e4090000080fb00cf
:1059e00000004000800078002e0090000080400001
:1059f0000080e80010007800000978002e40900038
:105a00000040e800204798002e409000e84f5000ea
:105a1000ebff36002e00900072004000be009000a8
:105a2000010878000000eb00000f78000040eb0058
:105a3000204798000b0037002e4090000080fb00ac
:105a400000004000800078002e00900000804000a0
:105a5000100078001e0f40002e4090000040e8002b
:105a6000204798002e409000e94f5000f2ff36008a
:105a70001e00780001002000a2002000811f780095
:105a8000110009004288d800cf0078000080fa0099
:105a9000000006000600fa00881f7800000f78005a
:105aa000100320009e0f100003003e002003200082
:105ab000000f780005003700803e20009e0f100088
:105ac00002003600803e2000000f7800e0fc2f002e
:105ad0001e0440006140b9006cf2070010079800f6
:105ae000210798000800e00007003d0002002000a8
:105af000037824001e009000ae0090008ff2070093
:105b0000100798002107980092b92b0063f023003a
:105b10001e009000ae009000e5f207000200200099
:105b20000332240085f2070015f307004f047800c4
:105b30000080fa00000006000200fa00000f780062
:105b4000004020009e0f10000300340000402000a1
:105b5000000f7800040037001e00e00002003d0046
:105b60000000eb00000f78001e0078000080fa00b3
:105b7000000006000000fa0002c2b3000128200065
:105b800000802000dff707000080fa000000060018
:105b90000000fa00ca02a900803e20000bfe0700a8
:105ba000a0002000d0448800a04680000efb070023
:105bb000ca02a800d0448000604188000900370074
:105bc00060418000d0448800a046800006fb0700aa
:105bd000c0122000fdfd070060418000630040000e
:105be0006041880061418000b0468000808f500095
:105bf000f3ff36000080fa00000006000000fa0003
:105c0000d044800060418800090037006041800076
:105c1000d0448800a0468000f3fa0700c01220009c
:105c2000eafd0700604180000080e90060418800d3
:105c300060418000e90f5000f4ff3e00ca02a90055
:105c4000803e2000e1fd07000080fa000000060011
:105c50003600f800809fbe00829fbe00849fbe0079
:105c6000869fbe003400f80000c0b300a001880089
:105c70000000fa002ac8bf000004e00018003a0043
:105c8000504880000000e8005048880051488000db
:105c9000f0702200808f500011003600e2c2bf0079
:105ca0000080fb004400de000004a20061406000b0
:105cb0006140600061406000614060004401dd00bf
:105cc000212e200091407800f0ceb30000c060008b
